:10000000181D0020115100000D5100000D5100007D
:1000100000000000000000000000000000000000E0
:100020000000000000000000000000000D51000072
:1000300000000000000000000D5100000D51000004
:100040000D5100000D5100000D510000D13F000086
:100050000D5100000D5100000D5100000D51000028
:10006000713F0000813F0000913F0000A13F000070
:10007000B13F0000C13F00000D5100000D510000D4
:100080000D510000F53300000534000000000000B1
:1000900000000000153400000D5100000D5100005B
:1000A0000D5100000D5100000D5100000D510000D8
:1000B0000000000010B5064C2378002B07D1054B3B
:1000C000002B02D0044800E000BF0123237010BDC4
:1000D000C0090020000000003CD80000084B10B50B
:1000E000002B03D00749084800E000BF0748036819
:1000F000002B00D110BD064B002BFBD09847F9E731
:1001000000000000C40900203CD800003CD80000DA
:100110000000000010B5044B04490548984701222F
:10012000044B1A7010BDC046253300002CA2FAFF04
:10013000680C0020020A002070B50B4B98470B4D4D
:100140000B4C0C4E002800D00B4E3000A84730005E
:10015000A0470A4B98470A4E002800D0094E3000AD
:10016000A8473000A04770BD8D1C000099220000F8
:10017000A9240000C4C30000EBC30000591900000B
:100180001AC4000041C4000030B5A3B06846074B54
:100190009847009A019B0400054902A8054DA8470D
:1001A00002A8054B9847200023B030BDED19000090
:1001B00070C40000417A00009922000010B50C4B79
:1001C00098470C4B98470C4B98470C4B98470C4B57
:1001D00098470C4B98470C4B98470C4B98470C4B47
:1001E00098470C4B98470C4B98470C4B984710BDC1
:1001F00049200000A10E0000FD0E000009140000BF
:10020000E51200001D13000089130000B91300005F
:100210003913000061130000E913000039010000E8
:100220000023F0B5D1B012AA1FA90B7013709371FF
:10023000D37153709370137253729372D37213739A
:1002400093735373137453619361137713625362FF
:1002500093850833D370E023DB009380D34BD449DC
:100260009362D448D44B9847D24B1B681C69002C2E
:10027000FCD102221968CF480A431A60CF492200F4
:10028000CF4B9847CB4B1868CE4B9847CE4BCF4DB2
:100290001A5C1F231A401E3B19009140CC4A0AA841
:1002A0001160C44AC349527E1A434A760A68210043
:1002B000537202921022A847102221000EA8A847CC
:1002C000C44DC54B28009847C44B28009847C44BE1
:1002D00003941C700022C34B1A70C24B1B78002B76
:1002E000F8D1BF4B1C78002C1DD1BF4B984700287C
:1002F00015D02D230EAD63550134082CFBD1002001
:10030000BA4B9847BA4B22000AA928009847B24B2B
:1003100000285FD10122B249B6480A709847B04B15
:100320001B78002B32D0B44B984700282ED00A20DF
:10033000B24B98476B46B24D0AAC1B7B290020009C
:10034000B04E2372B04700284AD0AF4B2100AF48CF
:10035000984730A8AE4B984700283DD1AD4B309818
:100360009847082200900191AB4BAC490EA89847E2
:10037000082221000EA89E4B9847002806D06A4606
:10038000974B127BA6481A70934B9847A54B9847FA
:100390000028A2D1402120A8A34B98470290002812
:1003A0009BD0A24920A8974DA8478B4C002800D18C
:1003B0008FE208A8964B9847002800D07BE2954B27
:1003C0000898984702000B009949934D30A8A84718
:1003D00030A871E29748A1E797487F4B9847C7E755
:1003E00096492000B047002817D021008748864B47
:1003F0009847934B98470528FBD00028B8D1402157
:100400002000904B98470028B2D0220040210EA82F
:10041000814B984701228C4B11E08C492000B0475A
:1004200000280ED02100784B7848984788486A4BBE
:100430009847884B5D495F4898470122694B1A707D
:1004400096E785492000B047002817D021006E4B61
:100450006E489847814B08AA30A906A8804DA84746
:10046000002809D1309A319B6C49009201930EA863
:100470000822694B9847CDE77A48AEE77A492000D1
:10048000B04700280AD0604B21006048984730A848
:10049000764B98470028E5D075489EE775492000BF
:1004A000B04700280AD0584B210058489847724B53
:1004B0009847002800D15BE770488EE7704920001C
:1004C000B04700280AD0504B2100504898476D4B48
:1004D0009847002800D14BE76B487EE76B4F200020
:1004E0003900B047002825D02100474B474898479E
:1004F000674B9847674B05009847674B1870674BE9
:100500009847674B1870674B9847674B1870674B55
:100510009847674B1870674B9847674B1870674B45
:100520009847674B0822187066492B000EA83A4D71
:10053000A8476FE764492000B047002800D117E7BB
:10054000324E290030002F4DA847002804D05F49C3
:100550000EA82D4B98470BE73F493000A8470028CD
:1005600010D0394D2B78012BF1D13C4B2B491A6817
:100570005B680EA8009201930822274B984702233C
:100580002B70F5E639003000A847071E00D1D7E0F0
:100590002D4D2B78012B00D09AE03F4B08221B7881
:1005A00048490EA81C4EB047E9E7C0462CA2FAFF06
:1005B00000200042680C0020BD3000001501000042
:1005C000713300008530000082C40000AD79000066
:1005D00000E100E085C4000099220000A924000089
:1005E000DC090020020A0020A1120000C120000046
:1005F000B121000098C40000D52100007D4000001A
:10060000DDC40000BD7D0000857A0000E009002007
:10061000610F0000D5760000417A0000E2C40000BE
:1006200005C700005D220000C92400002FC700009C
:1006300039C70000B3C40000E8C400001CC50000B6
:100640007122000079250000000A002025C5000065
:100650002EC500002533000046C50000F809002023
:100660003D1D00004DC500007AC50000ED190000D9
:1006700086C50000AFC500008D1B0000C0C500008E
:10068000EEC50000211C0000FAC5000023C60000D2
:10069000C512000001130000DF09002079130000DB
:1006A000DD090020D9130000F009002051130000DB
:1006B000010A0020A9130000030A002029130000EA
:1006C000DE09002029C600002DC6000032C6000049
:1006D000022B08D1CB4B08221B78CB490EA8CB4E5E
:1006E000B04703234CE7032B08D1C94B08221B78E2
:1006F000C5490EA8C54EB047042341E7042B08D1D5
:10070000C44B08221B78C0490EA8C04EB047052331
:1007100036E7052B08D1C04B08221B78BA490EA832
:10072000BA4EB04706232BE7062B00D00FE7BB4B92
:1007300008221B78B4490EA8B44EB04707231FE720
:10074000B7492000A847061E15D0B64EB64D310059
:100750002000A84731003800A847B44B9847AB4B5E
:1007600002000500B24920009847B24B002D00D08E
:10077000B14B9847FCE5B1492000A847071E14D0AB
:10078000A84FA94D39002000A84739003000A847DC
:10079000A64B98479D4B02000500A94920009847A9
:1007A000A84B002DE5D0A84BE3E7A8492000A847B7
:1007B000061E14D09B4E9C4D31002000A8473100EE
:1007C0003800A847994B9847904B02000500A04974
:1007D000200098479F4B002DCBD09F4BC9E79F49E6
:1007E0002000A847071E14D08E4F8F4D39002000DF
:1007F000A84739003000A8478C4B9847834B02002C
:100800000500974920009847964B002DB1D0964B94
:10081000AFE796492000A847061E14D0814E824DAE
:1008200031002000A84731003800A8477F4B984787
:10083000764B020005008E49200098478D4B002D15
:1008400097D08D4B95E78D492000A847002815D0FB
:10085000744F754D39002000A84739003000A84773
:10086000724B9847694B0200050085492000984764
:10087000844B002D00D07CE7834B7AE7834920002E
:10088000A847002815D0674E674D31002000A847C3
:1008900031000020A847654B98475C4B02000500DB
:1008A0007B49200098477B4B002D00D161E77A4BB4
:1008B0005FE77A4891E57A48A04720A8794CA0479D
:1008C0005848A047029B7848002B00D17748A047A2
:1008D00003E5774920A8A84700280DD008A8754B44
:1008E0009847002806D1744B089898470B000200DF
:1008F00072496AE57248DFE7724920A8A847494E65
:10090000002816D0584B98476F4B984700280BD1BA
:10091000402130A86D4B9847002808D030A8A04748
:100920003000A0476048A0474E4B9847C5E75F4856
:10093000F9E7674920A8A847002813D0654B9847D6
:100940000028BAD0644B98470028B6D1402120A88F
:10095000624B9847051EB0D020A8A0473000A047A2
:100960000295AAE75E4920A8A847002809D05D485B
:10097000A0475D4B5D495E48984701225D4B1A7068
:100980009BE75D4920A8A847002822D006AB05AA0E
:1009900008A904A8594DA847002818D1049A584915
:1009A0001A4D30A8A84730A8A047059A554930A845
:1009B000A84730A8A047089A099B534930A8A847E0
:1009C00030A8A047069A079B504930A8FFE450483A
:1009D00072E7504920A8A847002806D04E4B9847F8
:1009E000002800D169E74D4866E74D4920A8A8478F
:1009F000002800D19AE04B4B9847002800D15CE7D3
:100A0000494859E7DD09002029C60000417A000065
:100A1000F0090020010A0020030A0020DE0900205E
:100A20003BC6000045C60000C57F0000C978000035
:100A300047C60000D5120000E512000054C60000B1
:100A40005FC60000111300001D1300006DC60000FA
:100A500076C60000391300004513000082C600006E
:100A60008DC60000611300006D1300009BC60000DE
:100A7000A7C600008913000099130000B6C6000045
:100A8000C0C60000C9130000B9130000CDC60000A5
:100A9000D4C60000E9130000F9130000DEC6000010
:100AA00046C7000099220000D6C70000D4C7000046
:100AB00076C70000E50F0000D576000080C7000073
:100AC00097C70000CAC70000852200002926000041
:100AD0001CC50000011300007122000079250000F0
:100AE00025C50000DEC70000253300002CA2FAFF58
:100AF000680C0020020A0020FFC700003D1D000016
:100B00000BC8000014C800001DC8000034C8000055
:100B10004EC800007AC500008901000086C50000AB
:100B2000AFC500008D1B0000C0C50000894920A88A
:100B3000894DA847002806D0884B9847002800D147
:100B4000BBE68748B8E6874920A8A847002840D0D8
:100B5000854B9847854C0200854930A8A04730A8AE
:100B6000844B9847844B98478449020030A8A0479B
:100B700030A8804B9847824B98478249020030A8A2
:100B8000A04730A87B4B98477F4B98477F4902008E
:100B900030A8A04730A8774B98477D4B98477D49B0
:100BA000020030A8A04730A8724B98477A4B98476C
:100BB0007A49020030A8A04730A86E4B9847784B7E
:100BC00098477849020030A8A04730A8694B984759
:100BD00073E6754920A8A847071E02D0734B9847B3
:100BE0006BE6734920A8A847724C061E14D021005A
:100BF000714D20A8A84721003800A8476F4B98479F
:100C00005A4B020004006E4920A898476D4B002CF7
:100C100000D18AE66C4B88E66C4920A8A847071EDD
:100C200014D02100644D20A8A84721003000A84717
:100C3000624B98474D4B02000400654920A8984735
:100C4000644B002C00D170E6634B6EE6634920A82C
:100C5000A847061E14D02100574D20A8A847210000
:100C60003800A847554B9847404B020004005C49A8
:100C700020A898475B4B002C00D156E65A4B54E60F
:100C80005A4920A8A847071E13D021004A4D20A882
:100C9000A84721003000A847484B9847334B020033
:100CA0000400534920A89847524B002C00D03CE642
:100CB0003AE6514920A8A847061E14D021003E4D0F
:100CC00020A8A84721003800A8473C4B9847274B4D
:100CD00002000400494920A89847494B012C00D143
:100CE00023E6484B21E6484920A8A847002814D00D
:100CF0002100314D20A8A84721003000A8472F4BE4
:100D000098471A4B02000400404920A89847404BDE
:100D1000002C00D109E63F4B07E63F4920A8A84731
:100D2000002814D02100244D20A8A847210000202D
:100D3000A847224B98470D4B02000400374920A8D2
:100D40009847374B002C00D1EFE5364BEDE50023FB
:100D50000293B2E5EEC50000BD7D0000211C00003D
:100D6000FAC5000077C80000C5120000417A0000F3
:100D700087C80000992200000113000096C80000F7
:100D800029130000A6C8000051130000B4C80000D9
:100D900079130000C4C80000A9130000D5C80000E2
:100DA000D9130000E4C80000F0C8000039010000B9
:100DB0003BC6000045C60000C57F0000C9780000A2
:100DC00047C60000D5120000E512000054C600001E
:100DD0005FC60000111300001D1300006DC6000067
:100DE00076C60000391300004513000082C60000DB
:100DF0008DC600006D1300009BC60000A7C6000052
:100E00009913000089130000CDC60000D4C600006D
:100E1000E9130000F9130000B6C60000C0C60000C8
:100E2000B9130000C913000003681A8C002AFCD112
:100E300007221A719A711978053A0A431A700368E1
:100E4000188C80B20028FBD1704703681A8C002AE6
:100E5000FCD1072202211A719A711A788A431A70FA
:100E60000368188C80B20028FBD1704703681A8C85
:100E7000002AFCD10222197E0A431A7603681A8CD2
:100E8000002AFCD1704783790120DBB2184002228E
:100E9000590700D51043134201D00423184370476B
:100EA00030B58DB001AC0E4B20009847072323715D
:100EB000023B63700B4B0C4D1A78002A0BD00022BA
:100EC0001A70220009492800094B98472800094B4D
:100ED00098470DB030BD2800074B9847F1E7C04652
:100EE0001927000000000020040A0020000C004325
:100EF00059270000290E00004B0E000030B58DB0C0
:100F000001AC104B20009847402363753C3BA37015
:100F10000F3323710E3B63700B4B0C4D1A78002A74
:100F20000BD000221A70220009492800094B98476B
:100F30002800094B98470DB030BD2800074B984753
:100F4000F1E7C04619270000010000200C0A00202C
:100F5000000C004359270000290E00004B0E000032
:100F6000F7B5154C0700154B20009847012620685F
:100F7000134DA8473042FAD02068838C86719BB20B
:100F80000193A8470425054004D002221E202368AF
:100F90009A71FEBD0B4B019898470B4B98470B4A33
:100FA0000B4B0C4CA04700220B4B0C4CA0470C4B9E
:100FB000984738602800ECE7040A00206D0E000016
:100FC000870E0000F95A0000D57600006666666656
:100FD00066660A400D6A000000FEAF40A561000091
:100FE00079770000F7B5154C0700154B200098479E
:100FF00001262068134DA8473042FAD02068838C20
:1010000086719BB20193A8470425054004D00222B3
:101010001E2023689A71FEBD0B4B019898470B4B1D
:1010200098470B4A0B4B0C4CA04700220B4B0C4C27
:10103000A0470C4B984738602800ECE70C0A0020CA
:101040006D0E0000870E0000F95A0000D5760000F2
:101050006666666666660A400D6A000000FEAF407E
:10106000A5610000797700001E2270B5164986B090
:101070004B68002493431A00042313434B606B46D0
:101080006A461C700E2301265370104B0500019315
:1010900068460F4B947014725672984720000D4B9F
:1010A000984703A94E604C700C724C72B54209D13E
:1010B00003230B700020084B98470020074B9847EC
:1010C00006B070BD0C70F5E700400041001BB70092
:1010D000DD4B0000A94C0000414E0000D94E00003D
:1010E000F8B5114C07000E00150021000622002063
:1010F0000E4B9847002812D123783B806278120269
:1011000013433B80A3783380E27812021343338089
:1011100023792B806279120213432B80F8BD044897
:10112000044B9847FAE7C046140A0020FD47000028
:101130004DCA0000992200000E4B10B5187099702E
:10114000000A090A1A71120A5870D9705A711900E6
:1011500006220020084B9847002802D00748084B79
:101160009847084B9847002802D00748044B9847F7
:1011700010BDC046140A0020FD49000078CA0000D6
:101180009922000085480000ABCA0000F7B5174F50
:10119000050001911600B847154C002809D11548E3
:1011A000A0471548A047320001992800134B9847E3
:1011B000F7BD162802D11248A047F9E71148A04709
:1011C0001148A0471148A0471148A047114B984724
:1011D000B8470028ECD11048A0471048A047019B11
:1011E0003288198828880E4B9847E1E705460000A9
:1011F00099220000FDC800001BC90000E11000009A
:1012000045C900006EC9000098C90000AFC90000C0
:10121000D1C90000CD46000002CA000022CA000069
:1012200039110000F8B50123194C1A4D6370802361
:101230002B707F3B0026AB700123174F2100082045
:101240002370A6706E70EE70B84721000220B84778
:1012500021000620B84721001220B84721001B209A
:10126000B84721001320B847210018202670667067
:10127000B84701232900094C07206E70AE702B700F
:10128000A047012329000B202B70A047F8BDC046C2
:101290001A0A00201D0A002071440000B15000000D
:1012A0008023054910B518200B70044B9847044B58
:1012B000186AC001C00F10BD1D0A0020B150000007
:1012C00000280040024B1869C005C00F7047C04697
:1012D000002800408022024B52005A617047C046ED
:1012E00000280040802210B5034B52009A61C820AC
:1012F000024B984710BDC0460028004051400000F6
:10130000024B18694007C00F7047C04600280040D4
:101310000422014B5A617047002800400422014B0F
:101320009A61704700280040024B18690007C00FFF
:101330007047C046002800400822014B5A617047A0
:10134000002800400822014B9A61704700280040A5
:10135000024B18694006C00F7047C0460028004085
:101360004022014B5A617047002800404022014B47
:101370009A61704700280040024B18694003C00F73
:101380007047C046002800408022024BD2025A61BA
:101390007047C046002800408022024BD2029A616A
:1013A0007047C04600280040024B18690001C00F7A
:1013B0007047C046002800408022024B12055A6147
:1013C0007047C046002800408022024B12059A61F7
:1013D0007047C04600280040024B18690003C00F48
:1013E0007047C046002800408022024B12035A6119
:1013F0007047C046002800408022024B12039A61C9
:101400007047C046002800408021642310B58EB08C
:1014100001AA89031161012101931C4B49425360C8
:101420000023D18291820A316944CB770CA90B70D9
:10143000312169440B703221694493601373137630
:1014400093620B70D7331386114B124CD361124B3E
:10145000124913622000124B984707212268D36972
:101460000B40FCD102211068014311601021E48877
:10147000508B084203D10133A342F9D35183002298
:10148000084B1A725A729A720EB010BD480D0000C5
:1014900003001000240A002003001100000C004289
:1014A000B92A0000300A0020F0B50E001349144F8D
:1014B0000880A1B01348144B15004F604A8098472C
:1014C000041E0AD00200114B11496846984768462D
:1014D000104B9847200021B0F0BD02006B1EDB00CE
:1014E00030609BB291B28D42F4D9B95C30689940BA
:1014F000083B014331609BB20132F3E7300A002020
:101500003C0A0020240A002005300000417A000037
:1015100076CB00009922000010B50C000C49A0B059
:1015200008804C604A800B48002B0ED10A4B98472C
:10153000041E07D00200094B0949684698476846CF
:10154000084B9847200020B010BD074BEFE7C0467E
:10155000300A0020240A002019300000417A0000DF
:10156000A5CB0000992200002D300000F0B5A1B0FD
:101570001E0026AB1F8827AB0D4C1B780500A0472B
:10158000041E0AD002000B490B4B68469847684678
:101590000A4B9847200021B0F0BD3A0031002800E6
:1015A000074B9847041EF5D002000649ECE7C046F9
:1015B00019150000D4CB0000417A000099220000E8
:1015C000A91400000ECC0000F0B5A3B01F0028AB9A
:1015D0001E886B4605000800D91D0A700E4C0200DB
:1015E00001232800A047041E0AD002000B490C4B1F
:1015F00002A8984702A80B4B9847200023B0F0BDE3
:1016000009490A480A4B0D804F604E809847041ED6
:10161000F3D002000749EAE719150000DECA00000E
:10162000417A000099220000300A0020240A00209C
:101630000530000016CB000010B5A2B001AC21703F
:101640000A49127808804B8009480A4B62704C6046
:101650009847041E07D00200074B084902A8984784
:1016600002A8074B9847200022B010BD300A002086
:10167000240A002019300000417A00004ACB000003
:101680009922000037B56B46DC1DD8710B4D022343
:10169000220007214C20A84723780500DB0706D548
:1016A000FA20074B800098470648074B9847002DC3
:1016B00002D00648044B984728003EBD391600006A
:1016C0007D400000B5CC000099220000CECC000087
:1016D00030B50F25012185B06D440C4C00912B00D5
:1016E00005224C20A047041E05D00948094B984705
:1016F000200005B030BD03222B7813402B70F7D1AA
:101700000548044B98470524F2E7C046C915000078
:1017100048CC0000992200006ACC000030B50F24AC
:101720000023012185B06C4423700D4D00912300EE
:1017300008224C20A847051E0A480CD1072223780E
:10174000082193432370220002234C20064CA0471B
:10175000051E02D00548064B9847280005B030BD4D
:10176000C915000048CD00003916000071CD0000F9
:101770009922000030B50F240023012185B06C446C
:1017800023700F4D0091230020224C20A847051EF6
:101790000C480FD17F222378202193431A0009237C
:1017A00013432370220002234C20074CA047051E40
:1017B00002D00648064B9847280005B030BDC04609
:1017C000C9150000EFCC0000391600001BCD000049
:1017D00099220000F0B50E260F250023012785B0C1
:1017E0006E446D4433702B70154C009733001822F3
:1017F00039004C20A047041E124809D1104C009714
:101800002B003B2239004C20A047041E05D00E4877
:101810000E4B9847200005B0F0BD0F230E21327803
:101820000B489A432B7832708B432B70A02A02D13D
:10183000202BEFD00748054B98473C00EAE7C0460D
:10184000C91500009BCD0000C7CD00009922000003
:10185000F2CD00001DCE00007FB50A2501216D44A8
:1018600000912B000D224C202D4CA047002802D0C7
:101870002C482D4B98470B2601216E4400913300D4
:101880000E224C20A047002802D02648264B98471D
:10189000012132782B7812021343244A03AD1380BE
:1018A0004C2000912B000F22A047002802D01D4899
:1018B0001D4B98470D2601216E44009133001022E4
:1018C0004C20A047002802D01648174B98472B7889
:1018D0000E25012132786D4412021343144A4C2024
:1018E000138000912B001122A047002802D00D4840
:1018F0000D4B98470F2601216E44009133001222B0
:101900004C20A047041E02D00648074B98472000F1
:1019100032782B7812021343064A138004B070BD4C
:10192000C91500008DCC000099220000580A002043
:10193000780A0020980A002010B50348034A044999
:10194000044B9847002010BD480A0020880A002058
:10195000680A0020E110000070B5144A14491548C7
:10196000154B9847154B9847041E154819D1200070
:10197000144DA847041E144813D1144B9847041E55
:1019800013480ED1134B9847041E134809D1134B2B
:101990009847041E124804D10120A847041E02D013
:1019A0001048114B9847200070BDC046880A00209F
:1019B000680A0020480A00208D110000D517000099
:1019C000C9CE000085160000EECE00001D170000F5
:1019D0001BCF0000751700004CCF00003919000024
:1019E00079CF0000A1CF000099220000F0B54B4B49
:1019F00089B0079098470400052800D181E0484845
:101A0000002C00D084E0474B9847041E464800D085
:101A10007EE0464B464A18881288464F801A00B22C
:101A20001880454A454B12881E88B61A36B21E8069
:101A3000434A444B12881D88AD1A2AB204926A4662
:101A4000128A1A80B847404D0022404BA8470A002E
:101A50000290039101003E4B300019605A60B84774
:101A600000223A4BA8470A00009001910100394B2F
:101A7000049819605A60B8470022344BA847060002
:101A80000F00354B1E605F60029A039B1000190027
:101A9000A847029003910A000100304B19605A6078
:101AA000009A019B10001900A847049005910A00B4
:101AB00001002B4B300019605A6032003B003900A6
:101AC000A84706000F0002980399264B264D1E607A
:101AD0005F60049A059BA84732003B00A847234B50
:101AE0009847234D02000B0000980199A847214B0D
:101AF0009847214B214A144DA847079B186059600D
:101B000008E001201E4B9847041E00D17BE71D48CA
:101B10001D4B9847200009B0F0BDC046D11600000B
:101B2000CBCF0000591800001DD00000580A00203B
:101B3000480A0020E1750000680A0020780A0020A9
:101B4000880A0020980A00200D6A00000000103F5B
:101B5000500A0020700A0020900A0020400A00204D
:101B6000600A0020800A0020855B000061520000AE
:101B7000A5610000A1510000DCA54C4072235D1A54
:101B800085160000F6CF00009922000010B5154B15
:101B90009847040005281AD01348002C1DD1134B78
:101BA0009847041E124818D1124B134A19888918F5
:101BB00089B21980114B1888114B1880114B19806C
:101BC000114B1A88114B1A80114B984707E00120DE
:101BD000104B9847041EE2D00F48104B9847200046
:101BE00010BDC046D11600004DCE000059180000AF
:101BF0009FCE0000780A002000C0FFFF580A002096
:101C0000480A0020680A0020980A0020880A00205C
:101C1000391100008516000078CE000099220000DE
:101C200010B50024064B20001C80064B22001C80AF
:101C3000054B21001C80054B9847200010BDC04675
:101C4000480A0020680A0020880A00203911000094
:101C50000B21002330B585B069440B700193033329
:101C60000093084C050003AB01227620A047041E18
:101C700004D1039B14202B60034B9847200005B030
:101C800030BDC0466D1500007D400000F0B585B048
:101C90001E236A46214C137303A9002301227620D8
:101CA000A047041E1E4827D10B26A02302276E44FE
:101CB00033700122019400971A4C03AB3100762057
:101CC000A047041E184817D1039B184A1B041B0F7A
:101CD00013801420164B984725002B005E3B337071
:101CE0000023104C0193009703AB012231007620B2
:101CF000A047041E05D00F480F4B9847200005B0A1
:101D0000F0BD6A46094B92895B195A801420084B32
:101D1000023598470C2DE0D1F0E7C04619150000B8
:101D200049D000006D1500006DD000009A0A002017
:101D30007D40000099D0000099220000F0B593B0DA
:101D40000F93482311AC0E9123702100002307004C
:101D50001600762001229A4DA8479A4B069014202F
:101D60009847069B9848002B21D1984B2000984714
:101D70000690031E96481AD1119B964A762013604E
:101D800010ABD91C582301220B708D4D069BA84720
:101D90008C4B069014209847069B8F48002B06D149
:101DA00020008A4B98470690002805D08B488C4B22
:101DB0009847069813B0F0BD11988A4B1860854B70
:101DC0001B683B6007933060874B9847874B060042
:101DD0005889854B0F009847854C0022854BA047BA
:101DE00002000B0030003900834EB04706000F00A0
:101DF0007E4B98897C4B984732003B00A047FA23E2
:101E000000229B05A0477D4D00227D4BA8470090F6
:101E10000191764B1889744B984732003B00A047DC
:101E20000022784BA04702900391704B98886E4B2C
:101E3000984782230022DB05A04702000B0002988E
:101E40000399A8470A900B91684BD888664B98472E
:101E500032003B00A047FE2300229B05A0470290D2
:101E60000391624B5888604B98470022664BA0470D
:101E700002000B0002980399A84700220C900D91D4
:101E800000980199614D5E4BA8470022002800D1BF
:101E900084E05F4B30003900A04732003B00A04790
:101EA00000225C4BA0470022049005910098019904
:101EB000534B514EB04702000B00A0470022564B37
:101EC000A0470022554B06000F00A04700220290B9
:101ED0000391534B30003900A047002206000F0049
:101EE000009801994F4BA847002820D000980199ED
:101EF000424D00224C4BA84702000B00A047002295
:101F00004A4B08900991A04702000B0002980399E0
:101F1000A84700220290039108980999444BA047D2
:101F200002000B0030003900A84706000F000C9893
:101F30000D99314D32003B00A8472B4B0600079806
:101F40000F0098472A4C02000B0030003900A047D0
:101F50000022384BA047029A039B06000F000A9804
:101F60000B99A84702000B0030003900A847FC235A
:101F700000229B05A047304C0022304BA0470E9B0F
:101F800018605960049A059B00980199A8472B4B4B
:101F90000022A0470F9B186059600AE7284B3000C9
:101FA0003900A04732003B00A0470022254BA04744
:101FB000002600270490059102960397B7E7C046D4
:101FC000191500007D400000D9D00000511C000010
:101FD00004D10000A80A002031D100005CD100002B
:101FE00099220000AC0A0020657600009A0A0020C1
:101FF0000D6A0000000070400D6F0000855B00005E
:1020000000409F400000903F0000F040555A000003
:10201000000008400000E03D0000B03F00804E405E
:1020200000003D40007097C00070974000003140B4
:10203000000022400000A03EA561000000005940C1
:10204000000014400000903D10B5064B984700205A
:10205000054B9847054B98470020054B9847054B83
:10206000984710BD2512000069100000852400006B
:10207000C1200000114000000122014B1A7070477E
:10208000EC0A002070B50B4D0B4B2C6820009847D4
:102090001F2318401E3B8340084AD3672A68D36930
:1020A000002BFCD102228F332375237623689343C0
:1020B000236070BDB00A0020453F000004E100E04D
:1020C000C02370B59B038EB00024012503936B469B
:1020D0001C745C749D74DD741C750533DC770C22F4
:1020E000234B0600210006A80194029498476B46F2
:1020F0001C705B19DD771F4B0A931F4B0B931F4B13
:102100000C931F4B0D931F4B1A78A2422CD01C70BE
:102110001D4C6A461D491E4B2000984702221D494E
:1021200020001D4B98472200042337321178256880
:102130000B4313702800194B98471F2318401E3B70
:102140008340174A13602268D369002BFCD12A68A8
:10215000023313432B60012E04D1124B12489847CF
:10216000124B98470EB070BD104B9847D0E7C04651
:10217000AD790000030016000300170003001800EB
:102180000300190002000020B00A002000040043F0
:10219000BD37000079200000D1390000453F000024
:1021A00000E100E09922000089D1000085200000B4
:1021B00010B50024044B1C7093B2044C0A000100BB
:1021C0000348A04710BDC046EC0A0020E9390000D2
:1021D000B00A0020014B1878C0B27047EC0A00200A
:1021E000FF22802302819622DB05920103600262B6
:1021F00000230122411D43608372C372CA77811D8F
:10220000CA77C21DD3770132D37788225203C260C6
:1022100002002C32836213705370132203634363F2
:102220008363C36343610382C37603760377437694
:102230008276437770470368DA69002AFCD119680F
:1022400002320A431A6070470368DA69002AFCD137
:1022500002211A688A431A6070470000034B00206D
:102260001B681B7E5B0700D405307047100B0020F5
:10227000034B00201B681B7E5B0700D405307047B2
:10228000000B0020034B00201B681B7E5B0700D463
:1022900005307047F00A002010B5044B0400984741
:1022A000210082B2024B0348984710BD957A000086
:1022B00041370000140B002030B591B0194B0500D8
:1022C0006846984796231B02089388235B03039371
:1022D0000123154A5B420D92144A0C930E92002280
:1022E0000F93134B01921978124C914215D01A702A
:1022F000114B6A461149200098472000104B98471F
:10230000012D05D10F48104B984720000F4B9847DF
:1023100022680F4B1A6011B030BD20000B4B98475C
:10232000E6E7C046E12100000300090003000A00BF
:1023300003000020140B0020253400000008004298
:1023400037220000C5D10000992200004922000078
:10235000100B002030B591B0194B05006846984726
:1023600096231B02089380235B03039303230C93A0
:10237000144B00220D9301235B420E930F93124BDB
:1023800001921978114C914215D01A70104B6A467F
:1023900010492000984720000F4B9847012D05D188
:1023A0000E480F4B984720000E4B984722680E4B63
:1023B0001A6011B030BD20000A4B9847E6E7C046CE
:1023C000E12100000300010004000020040B0020B4
:1023D000253400000004004237220000AFD1000085
:1023E0009922000049220000000B002030B591B076
:1023F000194B05006846984796231B0208938023D3
:102400005B030393154B00220C93154B01920D9324
:1024100001235B420E930F93124B134C1978914298
:1024200016D01A708421114B6A46C90520009847BE
:1024300020000F4B9847012D05D10E480E4B9847B1
:1024400020000E4B984722680D4B1A6011B030BD2A
:1024500020000A4B9847E5E7E12100000300040053
:102460000300050005000020F40A002025340000C8
:102470003722000099D10000992200004922000073
:10248000F00A002010B50020044B98470020044BB0
:1024900098470020034B984710BDC046B922000062
:1024A00055230000ED23000010B5044B04009847AD
:1024B000210082B2024B0348984710BD957A000074
:1024C00041370000040B0020F0B500240500260071
:1024D00085B002AB9F1D01913C8039001C481D4B0B
:1024E000984700281BD13A880A2A06D1002CF4D03C
:1024F000200005B0F0BD1E00EFE7731CAA550D2AA1
:1025000005D1EA18013A10701E000124E5E7019A8E
:102510009342F0D1AD18013D28700024E8E705286A
:10252000DBD00D4B0D491A280FD00D491E280CD0B9
:102530000C49132809D00C491C2806D00B49422805
:1025400003D00B49412800D00A4928009847E4E706
:10255000140B0020DF360000857A0000DAD100007D
:1025600003D200002AD2000051D2000076D200002F
:102570009DD20000CCD20000F0B50024050026005A
:1025800085B002AB9F1D01913C8039001C481D4B5A
:10259000984700281BD13A880A2A06D1002CF4D08B
:1025A000200005B0F0BD1E00EFE7731CAA550D2AF0
:1025B00005D1EA18013A10701E000124E5E7019ADE
:1025C0009342F0D1AD18013D28700024E8E70528BA
:1025D000DBD00D4B0D491A280FD00D491E280CD009
:1025E0000C49132809D00C491C2806D00B49422855
:1025F00003D00B49412800D00A4928009847E4E756
:10260000040B0020DF360000857A0000DAD10000DC
:1026100003D200002AD2000051D2000076D200007E
:102620009DD20000CCD20000F0B5002405002600A9
:1026300085B002AB9F1D01913C8039001C481D4BA9
:10264000984700281BD13A880A2A06D1002CF4D0DA
:10265000200005B0F0BD1E00EFE7731CAA550D2A3F
:1026600005D1EA18013A10701E000124E5E7019A2D
:102670009342F0D1AD18013D28700024E8E7052809
:10268000DBD00D4B0D491A280FD00D491E280CD058
:102690000C49132809D00C491C2806D00B494228A4
:1026A00003D00B49412800D00A4928009847E4E7A5
:1026B000F40A0020DF360000857A0000DAD100003D
:1026C00003D200002AD2000051D2000076D20000CE
:1026D0009DD20000CCD2000030B59BB002AD04000A
:1026E00060220A4928000A4B9847132C0BD8002374
:1026F000A40001A960594B70CB708B7001330B7033
:10270000C0B2044B98471BB030BDC046E8D20000B1
:1027100029790000B150000001220271C02252014B
:10272000C280020000232A32037043708370C3709A
:1027300003830362C361037243728372C3720373C0
:102740001370421D43738373C37303610375D3779F
:10275000C3840385437570470823F7B514009F4A67
:1027600001600600106A034313620B780520DB0743
:1027700000D5D0E03268138C002BFCD10B781C20E4
:102780009B0700D5C7E063783371002B04D1944ACE
:102790000433D1690B43D361237801A90B701E2048
:1027A000904B356898471E208F4B984720798F4B68
:1027B0009847E0888D4B984700270123BB4022694A
:1027C0001A4202D03800894B98470137142FF4D1B0
:1027D000637BA27B9B01D2011343DBB22B70237D71
:1027E0006278DB011343DBB2AB70E378302B00D1AE
:1027F0009DE009D8102B00D196E0202B00D196E067
:10280000002B0BD11A0090E0322B09D000D290E0BF
:10281000332B00D184E0342B00D17DE017207AE007
:102820000422102302217020090101400A432A7367
:1028300031680A8C002AFCD1617D3F29EED8E27B09
:10284000D2010A43D2B26A7331680A8C002AFCD1E1
:10285000A278611D6A70CA7F207BD200800010437D
:10286000E27A0243A07A400002431A436A81326846
:10287000108C0028FCD1228B9446002A06D0102B05
:1028800000D19BE057D8002B00D188E062466B89CD
:1028900013436B813268138C002BFCD1A38BEB812B
:1028A00033681A8C002AFCD1238C2B8233681A8C53
:1028B000002AFCD12379E28813432B8133681A8CD8
:1028C000002AFCD123002A331B78EB7007232B71DD
:1028D000CB7F002B14D0E38C45498B429ED86B8272
:1028E0003268138C002BFCD18023228D1B01D3185E
:1028F0009BB28B4292D8AA823268138C002BFCD1F7
:10290000E02100203B4BC9001B681A029B060A40CD
:102910005B0F1343AB85FEBD617A227A102382E7F9
:102920000622102301217EE7082200217BE70022F6
:10293000FBE70222F5E7202B17D0302BA6D1E37A54
:10294000E069002B09D003008033FF2B00D965E735
:10295000236A8033FF2B00D960E7FF2800DD5DE7A5
:10296000236AFF2B00DD59E790E7E07AE769224B05
:1029700000280CD0802080003818984200D94DE7FC
:102980008022206A92001018984200D946E79F42A0
:1029900000DD43E7226A9A4200DD3FE776E7E07A0E
:1029A000E769134B0028F2D080221201B818984230
:1029B00000D933E78020226A0001E4E7E07AE76982
:1029C0000E4B0028E3D080221202B818984200D99A
:1029D00024E78020226A0002D5E7C04600040040B8
:1029E00000140040D94F0000794F0000D9260000A4
:1029F000FF0F000020608000FF030000FFFF0000C9
:102A00000123044A18005168890700D4506818400F
:102A10007047C04600240040022310B5044A1178D4
:102A20000B431370034B98470028FBD110BDC046E1
:102A300000240040012A0000802313B5134A9B00A4
:102A4000516903200B435361002301A90B70104B04
:102A5000984703200F4B984701220F4C21780A43D7
:102A600022700E4B98470028FBD110222378934305
:102A7000020023700A4B1A5004304028FBD1082270
:102A8000084B1A60084B984713BDC046000400402D
:102A9000D94F0000794F000000240040012A0000B7
:102AA000840C002000E100E0192A000007230168DF
:102AB000CA691A42FCD17047F0B506008DB031608A
:102AC0000800974B17000D009847964A052800D13B
:102AD00015E1012383400400D16912340B43D36113
:102AE0003B7B0AAAE4B21370110020008E4B98477A
:102AF00020008E4B98478E4B387B002198472B68DF
:102B00001C209B0700D5F8E001232C6817381C40D7
:102B100000D0F2E013332B6033680BAD0193180043
:102B20007F4B984780230290F8692B707F3B6C7035
:102B3000EC70AB703C6A002803D101007D4B01981A
:102B4000984702232870000C6B70C0B229007A4BA2
:102B50009847002C04D101210198764B9847040036
:102B600002232C70240C6B70E0B2734B2900984741
:102B7000BB8AF380FB8A33813A7E8023002A06D108
:102B80006E4B02329B7813405E1EB341DB01BA6884
:102B90003E6916431E437B1DDB7F002B02D0802342
:102BA000DB051E43BB6A1E433B002C331B78002B06
:102BB00003D180239B049A4202D180231B051E432C
:102BC0003B002D331B78002B02D080231B041E43B7
:102BD0003B002E331B78002B02D08023DB031E43E7
:102BE000019B019A1B681E43019B1E6080235B00B2
:102BF0005360029BFA261233D8B2514B98473B6878
:102C0000B6005E437B68069007934E4B98474D4B4A
:102C1000029003917000984704900591494B388EBB
:102C20009847494C0890099102980399474A484BA4
:102C3000A04702000B0008980999A0470022454CC4
:102C4000454BA0473F4B040030000D009847020061
:102C50000B00200029003C4CA047404D02000B0017
:102C600002980399A847049A059B3A4CA047002272
:102C70003B4BA847049A059B3A4CA0473A4B9847D0
:102C800080230490BA689B049A4245D1FA23079C9A
:102C90009B005C43029A039B2E4E10001900B04724
:102CA000284B029003912000984700222F4B264E7C
:102CB000B0472C4E02000B0002980399B047002247
:102CC000274BA847284B9847294B061E1DD02100AB
:102CD000069898470238831B049A4020FF2A0CD894
:102CE000FF2B0AD8FF20150000041B04034000201E
:102CF000360635431D43019BDD600DB0F0BD022358
:102D0000116A18240B431362EAE66100069A481E12
:102D100080189847431EDFE700263300DCE7C046F3
:102D2000D93E000000040040D94F0000794F000058
:102D3000513D0000953D0000B150000000200041D1
:102D4000FD4F0000657600000D6A000095D626E86C
:102D50000B2E113E855B0000000024400D6F00002B
:102D60000000F03FA56100007975000000000840F8
:102D7000F958000002220368197E114206D01A7623
:102D80005B8B412013420AD1002008E05A8B520786
:102D9000FAD5C0221820596892020A435A60704737
:102DA00070B500220126022401680B7E334002D157
:102DB0000D7E254201D0002005E00132038992B248
:102DC0009342F2D8122070BD802310B50468DB0254
:102DD0006268134363606162024B98470123237664
:102DE00010BDC046A12D0000F0B5046885B0236871
:102DF00001901B01DB0F4D8803934B7A0E00002BD3
:102E000002D0897A474B98476368474F3B406360DD
:102E1000727A3388317A92035B00134301220029CE
:102E200019D0802212021343636201983F4B9847E6
:102E300063683B406360002863D101983C4B98472E
:102E400000285ED178233288717A120A1343012256
:102E500089035B000A43134363620198334B98472D
:102E6000039B0200002B17D07388012B14D1802301
:102E70006168DB020B436360002A42D101982C4B4E
:102E8000984700283DD1013DAFB20500294B9F4234
:102E900006D10295002520E063681F406760EBE7DC
:102EA0002022638B13423AD0019BDB7A002B04D0A3
:102EB000039B002B27D1002F27D001981E4B98474A
:102EC0006B1C9BB20293230028331B787268019815
:102ED0005355164B9847051E1DD0019B164F9B7AE4
:102EE000002B06D00198B847C02362689B021343A9
:102EF00063600198B84728002834227873680299E3
:102F00005A5405B0F0BD012FD7D180226368D20298
:102F1000134363600295013FBFB2029DB6E74120B3
:102F2000EFE7C046C92D0000FFFFFBFFA12D000009
:102F3000752D0000FFFF0000AD2A0000F7B50F005F
:102F40004B88050001932A4B046898477B7A002B35
:102F500003D0B97A2800274B98476368264A134064
:102F600063607A7A3B88397A5B00920313430029C5
:102F700002D0802212021343636228001F4B98473D
:102F8000061E15D128001E4B9847061E10D1009032
:102F9000009B019A93420DD10026AB7A002B07D0FB
:102FA000134B28009847C02362689B021343636059
:102FB0003000FEBD2022638B134216D028000C4B3C
:102FC00098477B68009A28009A5C230028331A707F
:102FD0000A4B9847061EE0D1009A638B013200929B
:102FE00004221342D4D01E26D7E74126E0E7C0468C
:102FF000AD2A0000C92D0000FFFFFBFFA12D00003E
:10300000752D0000012310B58372C372014B9847E0
:1030100010BDC046E92D0000012310B58372C372B4
:10302000014B984710BDC0463D2F0000002310B54E
:1030300083720133C372014B984710BD3D2F0000CE
:1030400000B51723042809D80D4B02F04BFC0309E7
:103050000D1115005A69114359610023180000BD74
:103060009A6911439961F8E7DA691143D961F4E784
:103070001A6A11431962F0E75A6A11435962ECE780
:10308000000400407FB50C4B0100180001AA70C875
:1030900070C2019A91420AD05A68914209D09B6845
:1030A00000208B4201D10230C0B204B070BD0020BC
:1030B000FAE70120F8E7C04648D30000F0B5924B8C
:1030C00005008DB008000E00140098471B2302AACB
:1030D00013725372023393728C4B01900C3306AA15
:1030E00083CB83C283CB83C20023AB60EB602B61B5
:1030F0006B612B766B76019B9A00854BD550230034
:103100002E6034331B78AB76E378082B04D1019A18
:103110001720D20700D5E3E001222B713368052088
:10312000134200D0DCE00221F37A17300B4200D0CA
:10313000D6E033680B4000D0D2E0217C002908D0D3
:1031400005A9CB70237E207D0B70724B8A704A706C
:103150009847237F002B0ED00022012305A9CA70B7
:1031600024328B70A2184B701F33E3181278187832
:10317000684B0A7098471020019A02A9D2000918DA
:1031800088581021019B02AA5F007B1C9B005218EB
:10319000D158C0B2604B9847E378082B10D1019BFF
:1031A000012B0DDC1021FB1C02AA02375218BF00B4
:1031B000D05902AA9B005218D158C0B2564B98471A
:1031C0000820237803A9019A0B7002AB1B189F5C9F
:1031D000524B38009847524B38009847E279E378D1
:1031E0001343A2881343627A002A02D0802252023B
:1031F0001343A27A002A02D0802292021343E27A79
:10320000002A02D0802252031343227B002A02D0DC
:103210008022920313436278A1789201C9010A4384
:10322000296813430A69002AFCD133602A681369AC
:10323000002BFCD1A3793373637B5A1E9341A27B8D
:103240009B00002A01D00122134329680A69002A41
:10325000FCD1FF323271002B04D029680A69002AA0
:10326000FCD17371237A73732B681A69002AFCD11D
:103270002A79042A16D0082A34D01720002A2FD100
:103280001A69002AFCD1238DB3822A681369002BA6
:10329000FCD1638DB3832B6818690028FCD1A38D02
:1032A000F3831DE01A69002AFCD1230028331B7820
:1032B00033752A681369002BFCD1230029331B784E
:1032C000F3762A681369002BFCD123002A331B787C
:1032D00033772B6818690028FCD12B342378737757
:1032E0000DB0F0BD1A69002AFCD1A36A73612A6887
:1032F0001369002BFCD1E36AF3612B68186900287D
:10330000FCD1236B3362EBE78530000048D300002B
:10331000C40C0020B150000041300000D94F000023
:10332000794F00000200036818690028FCD1127967
:10333000042A08D0082A09D01720002A05D189B20A
:103340009982100001E0C9B2197570475961FCE714
:1033500010B5044B9847044B9847044B98470020FE
:1033600010BDC046E1500000BD0100002102000078
:10337000931C9B001950037E022A04D10E32134382
:10338000037600207047032A01D11D32F7E701219F
:1033900091400B43F4E7000070B50126144B800008
:1033A000C4582368227E657E9B7A15401D403542B5
:1033B00004D0A3682000984723689E7202263542F5
:1033C00004D0E3682000984723689E721026354297
:1033D00004D023692000984723689E722026354236
:1033E00004D063692000984723689E7270BDC04670
:1033F000C40C002010B50020014B984710BDC046FA
:103400009933000010B50120014B984710BDC0460C
:103410009933000010B50220014B984710BDC046FB
:1034200099330000F0B5060093B0994B3160080065
:1034300014000491984701230200052800D1EAE016
:103440000500010012350498076805201F4200D0CE
:10345000DFE0049807681C20BF0700D5D9E08D483D
:103460008B40052A00D0D9E0026A1343036227008B
:103470002D373B780CA9EDB20B702800864B98478E
:103480002800864B984738780021854B9847E37A87
:1034900037687371631DDB7F3800B371A31DDB7F59
:1034A000F371E37E3372237F7372794B984718234D
:1034B000052801D00300123300250EAA1580228AA8
:1034C000029280220299D201914200D1BDE000D93E
:1034D000A8E080229201914200D1B0E010220025A4
:1034E000039222680692E268079262690892227E3D
:1034F0000992E21DD27F0A92626805922200059924
:103500000832002900D1A2E08021059849058842AF
:103510000DD1D27F002A0AD1D8B2624B256A9847D2
:103520000EAA0100604B28009847002871D1637EE5
:10353000002B01D0A37EBB730EAD2B88079ABB81F5
:10354000069B1343089A1343059A1343029A1343A5
:10355000099A120213430A9A5207134322000832AF
:10356000D27F002A01D104321343627E217F92026E
:1035700049020A43617FE07A09020A43611DC97F5B
:1035800049040A43A11DC97F09040A43A17A0143E2
:103590000A432189FF2900D171E0802040040343C0
:1035A0000A4321002C310978002903D13F49897849
:1035B000890701D580210B433068C1690029FCD1FE
:1035C0007A603168CA69002AFCD13B6080230DAE65
:1035D0003370236B72700E93636BF2706B60A36B2E
:1035E000B270AB60E36B1400EB60A300E858E1B28B
:1035F000002802D104982E4B9847431C05D0307008
:10360000000CC0B231002B4B98470134042CECD194
:10361000002013B0F0BD1825190014E7C269134348
:10362000C36124E7C0220299D20191420BD08022CB
:103630001202914200D051E70322039251E7102277
:10364000039201254DE70822FAE70822F5E7D27F29
:10365000002A08D0039B0EAA00932B00A16A206ABF
:10366000154DA84761E7226AD8B20E4B0B929847D6
:10367000039B010000930EAA2B000B98F0E7E17E5C
:10368000002900D18DE78021C9040B4389E7C0469A
:10369000D93E000000040040D94F0000794F0000DF
:1036A000513D0000FD4F0000913C00000020004112
:1036B000953D0000B1500000B93C0000C2791C23C8
:1036C000002A0AD00268173B107EC00705D5118575
:1036D000033B117E1942FCD000231800704710B53F
:1036E00082791C23002A0ED002680420147E173B26
:1036F000044208D0538BDBB29C061DD00224234227
:1037000003D01A235483180010BD034202D0508303
:103710001E23F8E70120034202D050831323F2E76F
:103720001020034202D050834223ECE720200342C2
:1037300002D050834123E6E7138D0B800023E2E79C
:10374000F7B506000F0015001720002A24D0F379E2
:103750000530002B20D000243368019380235B02C6
:103760000121019A127E0A4217D0727963189BB226
:10377000395D012A16D01C0089B2013D30000E4B84
:10378000ADB29847002DE9D1802302225B02019956
:10379000097E11420CD00020FEBD013B002BDFD181
:1037A0001220F9E7FB5C02341B02A4B21943E4E7E0
:1037B000013B002BEBD1F3E7BD360000F0B505006F
:1037C00029600E0014000A68022187B01C230A42F7
:1037D00000D0D3E001273268173B3A4200D0CDE059
:1037E0006E4B300098476E4B052800D1C9E08740EA
:1037F0000200D96912320F43DF616946631DDB7F26
:10380000D7B20B703800674B98473800664B984723
:10381000631DD87F0021654B98472378012B03D186
:1038200032680B33134333602378002B03D13268A3
:103830000833134333602B002A0000260C33283250
:1038400040C39A42FCD12B003633AE86EE622E8600
:10385000AE621E705E709E70032328686B724F4BC1
:103860002E7198470700524B52499847524BBF0060
:103870006A46FD50802313710123937123782F68CA
:103880005671D671002B00D196710026A36A02935F
:10389000E36A0393236B0493636B0593B30002AA5B
:1038A0009858F1B2002802D13800444B9847431C85
:1038B00006D06B461871000CC0B201A9404B984766
:1038C0000136042EEAD123786B71237CAB71A37C83
:1038D000EB71237D2B726B469E1C00233380237873
:1038E000012B10D12D4B286898471230354BC0B2B0
:1038F0009847354B01003200A069984717230028EC
:103900003CD133783B732378002B43D1E17FA57FF3
:103910007B6A090429431943A069A28B631C79625D
:10392000DB7F002B33D11300A16862680A43E16892
:103930000A43217C02430B43617C002903D12349C4
:103940008978890701D580210A43A17C002902D00A
:10395000802189020B43E17C002902D0802189006B
:103960000B43217D002902D0802189010B43396856
:103970000A433A607A6813437B600023180007B05B
:10398000F0BD02211A6A0A431A62182235E7402361
:103990001343C9E700231800C6E7C046D93E00001C
:1039A00000040040D94F0000794F0000513D000055
:1039B0000D3F0000293A0000D40C0020953D000086
:1039C000B1500000FD4F0000913C0000002000417C
:1039D000931C9B00C3185960012393401A00363092
:1039E000037813430370704770B51724002B18D069
:1039F000C5790534002D14D0050038352E78173CD4
:103A0000A6420ED0826202228386C16203862C7097
:103A1000036842729C7500244179A14201D11A7653
:103A20009A75200070BD0000F8B57C4B8000C4582A
:103A3000230022003733363225681B7816781E4063
:103A40002B7EAF7D1F40FB0739D562791300012A19
:103A500033D1637A002B0DD1714B1B88AB62638E1F
:103A6000013B9BB26386638E002B00D12A7563797C
:103A7000012B22D1637A002B21D0E16A2268481CF5
:103A80000B78E062A079DBB2012800D174E09BB230
:103A9000DB05DB0D9362A38E013B9BB2A386A38E55
:103AA000002B0CD101332B75637A012B07D1E379FD
:103AB000002B04D10233AB7501E0002BDAD00421D6
:103AC0000F4215D06B8B0B425CD0637A012B0CD06C
:103AD00023001E2238331A700323637202332B75BE
:103AE000330702D52000A3699847AB6A04236B8390
:103AF0000222174227D06379002B0ED107212975A6
:103B00002A760132627222003832A386238613702D
:103B1000F30602D52000E36998476379012B12D19F
:103B2000637ADBB2012B0ED1E279002A0BD102219C
:103B3000297501316172210038310A701E4202D0AC
:103B40002000E368984708231F4209D06279002AC1
:103B500006D12B752B76B30602D52000236A984731
:103B60007FB2002F07DA80232B752B76730602D5E0
:103B7000636A20009847F8BD487802310002034389
:103B8000E16285E7627A2368D2B29B6A012A13D187
:103B9000638E013B9BB26386638E9BB2002BA7D1E1
:103BA0002975210038310B700333637216429FD0A0
:103BB0002000E36898479BE7DB05A16ADB0DDAB2DA
:103BC0000A70A26A511CA162A179012904D11B0AC1
:103BD0005370A36A0133A362238E013B9BB22386F9
:103BE000238E9BB2002B00D082E722003832137064
:103BF00004332B75627A022A05D11E4200D177E781
:103C000020006369D6E7637A002B00D070E7B30722
:103C100000D46DE720002369CCE7C046D40C002017
:103C2000D00C0020F0B5002489B0009201933F230E
:103C3000002600272500069007910393039A134B53
:103C4000012000219847B6197F41069B079A03403F
:103C50000A4004960597134303D0012333431E0003
:103C6000059F019BBB4209D802D1009BB34205D8F6
:103C7000009A019BB61A9F4104430D43039B5A1EB1
:103C80000392DBD22000290009B0F0BD115A0000D8
:103C900010B54908040000234020A14201D210BD04
:103CA0000300581C091B80B28C42F9D94020FF2B1D
:103CB000F5D813800020F2E7F0B585B01E000AABFE
:103CC0000D00197803004B4303924027AB4217D8ED
:103CD000002E18D10200330008001B4C3100A04711
:103CE0002A0001003300194C3000A04700220123B4
:103CF000121A8B41140C180404430027039B1C80E8
:103D0000380005B0F0BD0024012EF6D10A002300D2
:103D100021000D4EB047009001910B0002002100E0
:103D200028000A4CA047802306009B019842E7D850
:103D3000009A019B690FE800A047F400041BE4B25D
:103D400064033443D9E7C046A55A0000253C00006F
:103D500037B50D4C05002378002B01D000290CD07D
:103D600001A91120094B0D7098471120084B984765
:103D700001230020657023703EBD63780800AB42CC
:103D8000FAD01D20F8E7C046200B0020D94F0000D4
:103D9000794F0000364A030000B50800934234D042
:103DA00008D88422D205934214D0324A93421FD0BD
:103DB000002317E0304A93423AD0304A93423FD032
:103DC0002F4A9342F4D1002303290BD801F08AFD36
:103DD0004B2A2C2E0023032904D801F083FD3E0238
:103DE0000507284B180000BD274BFBE7274BF9E7D9
:103DF00000230329F6D801F075FD32020406244B96
:103E0000F0E7244BEEE7244BECE700230329E9D845
:103E100001F068FD27020406204BE3E7204BE1E7B1
:103E2000204BDFE7204BDDE7204BDBE7204BD9E7DA
:103E3000022903D00329BBD11E4BD3E71E4BD1E788
:103E400000230329CED801F04DFD100204061B4BC0
:103E5000C8E71B4BC6E71B4BC4E71B4BC2E703235A
:103E6000C0E71A4BBEE71A4BBCE71A4BBAE7C0468D
:103E70000008004200040042001000420004004319
:103E8000000C0042030005000300060003000700C9
:103E90000300010003001E0003001F0003000900CF
:103EA00003000A0003000B000300110003001200CE
:103EB0000300130003000F0003000E0003001700AF
:103EC00003001800030019000300040003000800A9
:103ED000030010000300160070B586B06946094B58
:103EE0006A4670CB70C170CB70C1002399005158E5
:103EF000814202D1D8B206B070BD0133062BF5D194
:103F00000020F8E76CD3000070470000F0B5094CC2
:103F1000094A2378002B09D11E00084F084DD750BD
:103F2000EE500433182BFAD1173B23708000115048
:103F3000F0BDC046220B0020240B0020093F0000EA
:103F4000D40C002007B508236A4613700133537060
:103F5000013393700133D370013313710133537103
:103F6000024B98476B4618560EBDC046D93E00001E
:103F700010B5024B00201B68984710BD240B002091
:103F800010B5024B01205B68984710BD240B002040
:103F900010B5024B02209B68984710BD240B0020EF
:103FA00010B5024B0320DB68984710BD240B00209E
:103FB00010B5024B04201B69984710BD240B00204C
:103FC00010B5024B05205B69984710BD240B0020FB
:103FD000002370B501250B4C237023780F2B00D9DB
:103FE00070BD29009940084A5069084206D05161C5
:103FF000064A9B009B58002B00D09847237801333A
:104000002370EAE7EC0C002000240040840C002020
:1040100070B5094B00209847FA21084C890005002B
:10402000A047074B074918602800A0470522064B08
:104030001860064B1A6070BD114F0000F95800005F
:104040000800002040420F000C00002010E000E0BB
:1040500030B580240021074B64021A68064B0138F2
:1040600000D230BD002AFAD05A6099601D682542FE
:10407000FCD0F4E70C00002010E000E030B5802414
:104080000021074B64021A68064B013800D230BD8C
:10409000002AFAD05A6099601D682542FCD0F4E7E6
:1040A0000800002010E000E0024B187D01231840BA
:1040B0007047C04600400041042370B51C4A1D4DA6
:1040C000916904000B4393612023FF332B831A4B28
:1040D000984703000520002B28D0C0221E212378FA
:1040E00092001B021340A27852000A408021134321
:1040F0006278C902D2011343E27892040A40C021D7
:1041000013432279890212040A40082113436B6089
:10411000AB680A4A5B035B0F99401180AB68538020
:1041200063781371288BC005C00F000170BDC046B5
:104130000004004000400041A94000003C0B00206A
:10414000F7B5344A0D005388118804004B43AB4245
:104150000BD28022304B9201EB18934205D92F4BA2
:104160002F4AEB181820934212D82E4F7B683E003E
:1041700001938023019ADB0213437B602023FF33EA
:104180003B83294B9847002803D1019B05307B6076
:10419000FEBD1A2C05D016D8042C02D00DD8022C46
:1041A0000DD1AD086D00F5611A2C30D180237268F5
:1041B000DB021343736073680EE0062C20D9019B69
:1041C00017207360E4E7412C04D8402CE9D21C2C62
:1041D000F5D1E6E7452CF2D8A5231B022343338013
:1041E000114B98470028FBD0FD231A3C1C4203D1F9
:1041F00073680E4A13407360019B00207360C7E729
:104200003B8BDB05CDD5019B10207B60C0E71C2CD0
:10421000CCD0E1E73C0B002000C07FFF0000C0FFD6
:10422000FF0F000000400041A9400000FFFFFBFF1E
:10423000F7B5294F019115003B887A8804005A434D
:10424000824233D2254926486118182281422BD850
:10425000173A591E009218220C4225D1013AAB425E
:1042600022D3204B9847052200281DD01E4E1F4BFD
:1042700033801C4B98470028FBD02023FF33338327
:10428000002362085200681EAB4211D300223B7922
:10429000934209D13F2D07D80099154B914217D071
:1042A00021001C20984702001000FEBD0022D0E72C
:1042B0000199C95C834205DB89B2023311809BB24C
:1042C0000232E1E7019EF618767836023143F4E7D0
:1042D00021000420E6E7C0463C0B00200000C0FFA0
:1042E000FF0F0000A94000000040004144A5FFFF6F
:1042F00041410000F8B51A4B16001A885B8805008A
:1043000053430F00834205D21649174869181823F2
:10431000814216D8541E2C401823002C11D1013B89
:10432000B2420ED3114B98470523002809D0202212
:104330000F4BFF326D081A836D00711EA64202D822
:1043400000231800F8BD2B889BB23B558C4202DA43
:104350003A191B0A53700234A4B20235EEE7C04684
:104360003C0B00200000C0FFFF0F0000A940000030
:1043700000400041F8B51F4A0700138852885A438D
:10438000824207D21C4A1D49BA18182001258A42C8
:1043900001D9F8BD00259B00013B18201F42F8D130
:1043A000174EB04703000520002BF2D02023154CF8
:1043B000BF08FF337F002383E761002D17D08023E0
:1043C0006268DB021343636063680F4B2380B0476E
:1043D0000028FCD0002D03D063680C4A13406360B2
:1043E0001C23208B1840431E98418000D1E7084BC6
:1043F000ECE7C0463C0B00200000C0FFFF0F0000B0
:10440000A9400000004000411AA5FFFFFFFFFBFF8D
:1044100002A5FFFF202210B507240821124BFF320E
:104420001A839A68130C234099404280120D8281AE
:104430000E4A017013881B092340A34209D10023AF
:104440004360072312881A409A4207D100238360F1
:1044500010BD0621C91A04238B40F1E79B1A0422E0
:104460009A408260F4E7C04600400041004080006E
:1044700007B5802201AB1A700A785A704A789A7090
:104480008A781900DA70014B984707BDB1500000D7
:1044900010B50402034B5868034B001998470528D0
:1044A000F8D010BD440B002075430000F0B5002586
:1044B00085B0384A11898D422BD300235668957AEE
:1044C0004F1E98B2814255D813003F208733187091
:1044D00000204B1E8F080293B84218D083009BB275
:1044E0001D1DA9B20125441CA4B2019102998B4261
:1044F00004D09901895DFF2900D00025013301997D
:104500009BB28B42F2D1002D41D08732107005B0A2
:10451000F0BD5368AE019F5DFF2F02D10435ADB2EF
:10452000C7E7330080330293403B0393AB082C1D55
:10453000DBB2A4B20193174A13899C42EED2013B2D
:104540009C4214D05368A2019A5CFF2A0FD0974274
:104550000DD1029A995D9A5C914205D00399A00809
:104560005B5CC0B2934200D101980B4B9847043476
:10457000A4B2E0E79F4208D09801305C84B2FF2CDF
:1045800003D0AC4201D21018C372013399E7200066
:10459000A2E7C046440B00209144000070B50D0016
:1045A0008401054B4022586829000019034B9847A5
:1045B0000528F6D070BDC046440B0020F54200002F
:1045C00070B50D008401054B402258682900001980
:1045D000034B98470528F6D070BDC046440B002019
:1045E0003142000010B58401044B002259680420B8
:1045F0000919034B98470528F6D010BD440B00203D
:104600004141000001230022F0B59BB001AC637072
:10461000274B22705B68E270DB061B0FA3702271D0
:104620002000244B98470528FAD006A8224B98472B
:10463000079B16200B2B37D91A00204C083A52083A
:10464000A272802223819BB29B0192025B429B1843
:10465000636023000027C8331F70194B984723005D
:1046600087331B781A203F2B1ED003AE3200154B28
:1046700023CB23C220890AAD013880B22900124B16
:104680009847EB59F259934210D104370C2FF8D1C7
:10469000EB7B1020012B07D12A7B012A04D16B7BF5
:1046A000002B01D1180022701BB0F0BD1A20FBE7CF
:1046B00000400041B940000015440000440B0020B8
:1046C000AD44000084D300009D450000F0B52B4EA2
:1046D0000025330087331D7091B02800284B984780
:1046E000042433895F1E9C4228D3FF214022684660
:1046F000244B9847244B6A460093244BF8170193A8
:10470000234B02930123D3731373002353739373C7
:1047100003331840C719BF10F8B2194B98473089B6
:104720006946013880B21B4B984730891A4B0138D3
:1047300080B29847194B984711B0F0BDBC4219D0D0
:104740000323234014D1A008C0B20D4B9847402248
:10475000FF210C4B684698476B4669461D70200048
:104760000C4B9847013520000B4B9847ADB201E048
:10477000012BECD00134A4B2B3E7C046440B0020B7
:1047800091440000AD790000454574414D4F5250B1
:104790002E756D45C1450000E5450000AD440000A3
:1047A00030B50C00124991B00A781F23002A13D0AB
:1047B0008A7A073B82420FD90B00C8331B780D4D14
:1047C000002B0CD00B0088331B78834207D13C228E
:1047D0008C312000A8470023180011B030BD091803
:1047E000C87A054B694698473C2201A9F1E7C046C3
:1047F000440B0020297900009D450000F0B595B0DC
:104800001D4B029103923C210500984705AFC6B2AB
:1048100039003000194B98470190002810D13C21F5
:104820002800174B984789B22C00002904D13B7807
:10483000029A6C1C1370A4B2039B5B199C4202DBAE
:10484000019815B0F0BD3C2120000D4B98478FB268
:10485000002F07D10136F6B205A93000074B984763
:10486000002806D105AAD25D0299631BCA540134FF
:10487000E1E70190E4E7C046F9580000A1470000D5
:10488000055A0000084B10B51C00C8342278002AD5
:1048900008D01A00883212789B18D87A034B9847B0
:1048A00000232370002010BD440B0020E5450000CC
:1048B000F0B54C4C87B02378050003911F20002BE6
:1048C00077D0A37A0738AB4273D92300C8331B785B
:1048D000002B06D0230088331B78AB4201D0424B1B
:1048E00098476319D97A03230E000A009E431A40A1
:1048F000330060689E18F6B2B7013F5CFF2F5FD0AF
:104900000132D2B2042AF5D18A08140204195E1CBD
:10491000019205AA2100D670260040318036207809
:1049200009783678C03410705370917024788642BC
:1049300001D19F1C5770A04201D1D81C50708E42EB
:1049400001D1981CD070A14201D10333D37000264D
:10495000244C230087331B789B009B190293224B26
:1049600098472100720005ABD75C8831BD4222D147
:1049700020000D708C303C2203991C4B9847194C39
:104980006B46210018898831194B98476B461B7A72
:10499000E719FB7223000122C83301361A70022E78
:1049A000D6D1144B019898476B461B798734002069
:1049B000237007B0F0BD9B1858780F4B9847DEE77F
:1049C0002700200088373C220399084B8C303D702B
:1049D00098476519B0B23900054B9847EE7201232C
:1049E000C834E4E7440B0020854800002979000022
:1049F000C1450000914400009D450000F0B593B012
:104A0000009101923C21244B060098473C21C4B2FE
:104A1000224B300098478DB203AF002D09D1019B86
:104A20003B2B06D9009B751C1B783B70ADB2012354
:104A300009E0390020001A4B984700280ED1002DBC
:104A4000F0D035000300019A9219954208DB00204E
:104A5000834203D003A92000124B984713B0F0BD46
:104A60003C2128000D4B98478FB2002F0DD103A990
:104A700020000C4B98470028F0D10134E4B203A980
:104A80002000074B98470028E8D1009AAB1BD25C66
:104A900003ABDA550135C9E7F9580000055A0000A3
:104AA000A1470000B148000070470000094B196899
:104AB00000290BD1EFF31080074A002805D172B608
:104AC000BFF35F8F05490870012111701A68013228
:104AD0001A607047100C0020140C002010000020F9
:104AE000084B1A68013A1A601B68002B09D1064B63
:104AF0001B78002B05D00122044B1A70BFF35F8F87
:104B000062B67047100C0020140C0020100000202A
:104B1000802303495B00CA681A42FCD07047C04634
:104B2000000C00408023DB059A78824202D10021EC
:104B3000080070479A78172152B2002AF8DB012248
:104B40009A7198709A79002AFCD0F0E770B508281D
:104B500006D800F0C7FE0805053030130B162800F4
:104B60000024200070BD164B1C69FAE7154B1C7D14
:104B70002407A40F601C144C4443F2E7104B5C69FB
:104B8000EFE70F4D00242B689B07EAD50F4B9847A2
:104B900024222B681340042B10D120000C4B984783
:104BA000AC68A4B2E8E70B4B00241B789B07D8D570
:104BB000034BDC68D5E780242402D2E7064CD0E71B
:104BC000180C0020000C004000093D00114B0000B3
:104BD000FD4F0000280C0040006CDC02F7B50F21EF
:104BE000284B45789C460D4001781B8A4C42614118
:104BF0006446C9B20091244F41685A058678520F25
:104C00000194B94236D9214FB94235D9204FB94222
:104C100034D9204FB94233D91F4FB94200D80422AA
:104C20001E4C477A007A2161012104248C460099A8
:104C3000A34389000B43614608403F318B43840105
:104C40001800634620431F407F339843F901070053
:104C50001302134A0F433A401A4363461E40F302BD
:104C6000104E16401E432B0335052D0D1D43019B91
:104C70001D82F7BD0022D3E70122D1E70222CFE750
:104C80000322CDE7000C004080841E0000093D0097
:104C900000127A000024F4000048E801180C0020FB
:104CA000FFF8FFFFFFF7FFFFF8B508283FD800F037
:104CB00019FE123E3E0A0C18051E340002231D4A3E
:104CC000117D0B431375002030E002231A4A9169CD
:104CD0000B439361F7E70223164A118A0B431382B1
:104CE000F1E70223144A51690B435361EBE70224B5
:104CF000124E104D3368124F234333602C83B84754
:104D0000B3682B622C830024B8477368EB612C8353
:104D1000B84733689BB22B83D5E7022309490A7849
:104D20001A430A70084A10781840FCD1F8BD1720C1
:104D3000FCE7C046000C004000100040180C0020AA
:104D4000114B0000280C0040380C00407FB5802338
:104D500003221E211E4C5B00A3601E4B02209A60A2
:104D60001D4A1E4E536800258B435360B047802375
:104D7000227D5B42134340222375237D9343237599
:104D8000174B98470123174C01A9A3716371237135
:104D90004B6005330B702800134B4D700D724D7234
:104DA00098472800114B9847114B280098472179C4
:104DB000104BC9B29847104B984202D80020B04718
:104DC0007FBD0823A37163710C4B9842F8D8F5E7B7
:104DD000000C00400014004000400041254B000042
:104DE000214E000000040040414E0000D94E00005A
:104DF000114F0000F9580000808D5B00001BB700C8
:104E000004228240044B05485B6818401040431E52
:104E10009841C0B27047C04600180040FC0700002F
:104E20004023054A51690B4353610123034A137020
:104E300011781942FCD1704700040040001800406E
:104E400070B54B7805000C78002B02D08023DB0076
:104E50001C434B7A002B02D080231B011C434A6861
:104E6000012A13D9531E13400220002B07D08023A0
:104E700012049B001A43144308E00133400090429F
:104E8000FBD38022520114431B041C430B7A002BDA
:104E900002D080239B011C4328000B4EB047002802
:104EA000FAD10A4B98478021094BAA00D218136AFD
:104EB00049000B401C4314622800B0470028FBD176
:104EC000044B984770BDC046014E0000AD4A00003B
:104ED00000180040E14A000010B504002000084B13
:104EE00098470028FAD1074B9847074BA400E418CD
:104EF0008023226A5B0013432362044B984710BD52
:104F0000014E0000AD4A000000180040E14A0000D8
:104F1000F8B504002000124B98470028FAD1114F31
:104F20000834A400104B9847E059104B0007000FBD
:104F30009847E659E459F6040D4BF60F0500240C8A
:104F40009847002E08D1012C04D928002100094BD4
:104F5000984705002800F8BD0134E540FAE7C0464F
:104F6000014E000000180040AD4A00004D4B00000B
:104F7000E14A0000F958000010B50400074B9847BB
:104F8000074BA000C11840230800CA6F1A43CA6724
:104F9000C26F1A42FCD0034B984710BDAD4A0000C7
:104FA00004180040E14A000010B50400074B984780
:104FB000074BA000C11840230800CA6F9A43CA6774
:104FC000C26F1A42FCD1034B984710BDAD4A000096
:104FD00004180040E14A000070B50D00054B0400C4
:104FE00098470F222B7820341340034AA400A35083
:104FF00070BDC046A94F00000018004010B5040065
:10500000064B98472034064BA400E458054B240770
:10501000240F98472000044B984710BDAD4A00006C
:1050200000180040E14A0000114F0000D37830B56D
:10503000002B35D11478802C03D0802324065B020A
:10504000234302255478AC4306D19478002C24D114
:105050008024A402234341605478013C012C01D8F0
:10506000124C2340A0248DB2E4052C431C438462DF
:10507000D0240D0C24062C431C438462D478002CCD
:105080000AD15B0303D59378012B0CD1816153784E
:10509000013B012B00D8816030BDC024E402D9E778
:1050A00041600023DEE74161F1E7C046FFFFFBFFFF
:1050B00010B503000A004409C1090020814202D151
:1050C0000449E00140181F210B401E399940024B52
:1050D000984710BD002800402D5000007047000088
:1050E00010B5054B9847054B9847054B9847054B1E
:1050F0009847054B984710BD4D4D0000A94A000048
:10510000DD500000392A0000DD500000FEE70000FD
:105110001148124970B5884204D00023104CCA18B7
:10512000A24213D300210F4B0F4A934212D3FF2107
:105130000E4B0F4A8B43936080230E4A51680B43FA
:1051400053600D4B98470D4B9847FEE7C558043305
:105150001560E4E702C3E8E73CD800000000002047
:10516000C0090020C0090020180D00200000000028
:1051700000ED00E000400041E17800005133000004
:10518000054B02001968002901D10449196018680B
:1051900082181A607047C046300C0020181D00208D
:1051A000F0B54746CE4680B58DB004000D0000F046
:1051B000B7F8274B060098461B780F005BB2013307
:1051C00031D022002B002000290002F0B5F98146E1
:1051D000002828D12000290000F078FB00221D4B78
:1051E00000F04CFC00281ED0012302931A4B1B48F0
:1051F00003934B46069407950A930494059500F093
:105200006BFB43461B78089009915BB2022B11D0CF
:1052100002A800F05FFB00280CD00A9B0193002B32
:1052200010D1089E099F300039000DB00CBC90468B
:105230009946F0BD02F04EFB212303600A9B0193C7
:10524000002BEED002F046FB0A9B01930360E8E7D7
:10525000110000200000F03F90D30000A8D500000E
:10526000F0B54746CE4680B58DB004000D0000F085
:105270004DFA294B06001B780F005BB298460133AC
:1052800010D022002B002000290002F055F98146A1
:10529000002807D1002200232000290000F0DAFBBB
:1052A000002806D1300039000DB00CBC904699465C
:1052B000F0BD01230293194B0694079503934B46C7
:1052C0000A93434604940595002B15D00023002231
:1052D0001900100000F066FF434608900991022B68
:1052E0000ED102F0F7FA212303600A9B0193002BF1
:1052F0000CD1089E099FD5E7002300240893099448
:1053000002A800F0E7FA0028EFD1EAE702F0E2FA9B
:105310000A9B01930360ECE71100002098D3000082
:10532000F0B5DB4A4B0085B007000E005B089342E6
:105330000CDDD84A94466344034300D0ACE0002916
:1053400000DC25E10020002105B0F0BDD24A9342E7
:1053500000DC9BE0002900DA1DE102000B000020C8
:10536000CE4901F0D3FD0022CD4B01F04FFB0400EC
:105370000D0000F0CBF9CB4A0F0000900191CA4B11
:105380002000290001F042FBC84AC94B00F0FAFB9B
:1053900022002B0001F03AFBC64AC74B01F0B6FDD4
:1053A00022002B0001F032FBC44AC54B00F0EAFB9F
:1053B00022002B0001F02AFBC24AC34B01F0A6FDDC
:1053C00022002B0001F022FBC04AC14B00F0DAFBA7
:1053D00022002B0001F01AFBBE4A02900391BE4B43
:1053E0002000290001F012FBBC4ABD4B01F08EFDEC
:1053F00022002B0001F00AFBBA4ABB4B00F0C2FBB3
:1054000022002B0001F002FBB84AB94B01F07EFDEF
:1054100022002B0001F0FAFA0022A04B00F0B2FBB0
:1054200002000B000298039900F0BCFE009A019B59
:1054300001F0ECFA00260290039132003B003000AC
:10544000390001F0E3FA02000B002000290001F00E
:105450005DFD320004000D00009801993B0000F052
:1054600091FB02000B002000290000F09BFE0200CF
:105470000B000298039900F085FB32003B0000F01E
:1054800081FB02000B0000F07DFB5DE7994A93422F
:105490000BDC9948994957E702000B0001F036FDF3
:1054A00002000B0000F07EFE4EE702000B0001F050
:1054B000ADFA04000D007B4A7B4B01F0A7FA7B4A52
:1054C0007B4B00F05FFB22002B0001F09FFA794A32
:1054D000794B01F01BFD22002B0001F097FA774A6F
:1054E000774B00F04FFB22002B0001F08FFA754A3A
:1054F000754B01F00BFD22002B0001F087FA734A77
:10550000734B00F03FFB22002B0001F07FFA714A41
:1055100000900191704B2000290001F077FA6F4A4A
:105520006F4B01F0F3FC22002B0001F06FFA6D4A83
:105530006D4B00F027FB22002B0001F067FA6B4A4D
:105540006B4B01F0E3FC22002B0001F05FFA00221C
:10555000524B00F017FB02000B000098019900F07D
:1055600021FE3A00330001F051FA02000B006448BA
:10557000644901F0CBFC02000B003800310001F05F
:10558000C5FC02000B005C485C4901F0BFFCDBE697
:1055900059485D49D8E60022404B00F0F3FA00225A
:1055A0003F4B01F033FA04000D003E4A3E4B01F040
:1055B0002DFA3E4A3E4B00F0E5FA22002B0001F0A6
:1055C00025FA3C4A3C4B01F0A1FC22002B0001F0E3
:1055D0001DFA3A4A3A4B00F0D5FA22002B0001F0AE
:1055E00015FA384A384B01F091FC22002B0001F0EB
:1055F0000DFA364A364B00F0C5FA22002B0001F0B6
:1056000005FA009001912000290000F07FF8314A4E
:1056100006000F00304B2000290001F0F7F92F4A57
:105620002F4B01F073FC22002B0001F0EFF92D4A03
:105630002D4B00F0A7FA22002B0001F0E7F92B4ACE
:105640002B4B01F063FC22002B0001F0DFF900225C
:10565000124B00F097FA02000B000098019900F03D
:10566000A1FD32003B0001F0D1F9254A254B01F0A4
:105670004DFC32003B0000F085FA02000B0000F008
:1056800081FA02000B001C481F4901F03FFC5BE659
:10569000FFFFEF3F000010C0FFFFDF3F0000F03FC3
:1056A0000000E03F09F7FD0DE13D023F88B20175C2
:1056B000E0EF493F3B8F68B52882A43F5544880EF0
:1056C00055C1C93F7D6FEB0312D6D43F5555555593
:1056D0005555C53F82922EB1C5B8B33F59018D1BB8
:1056E0006C06E63FC88A599CE52A00404B2D8A1C6F
:1056F000273A03400000603C182D4454FB21F93F39
:10570000075C143326A6913CFB2109406C4BF0B595
:105710000A0046460D00D6464F461900C0B50400A3
:1057200006002940994200D1A7E0002D00DC81E06D
:105730002F1500D18EE0634B12039C468023120B81
:105740005B0367441A43FB0768D47B109C46E30F56
:105750009B189B18802216210026002564009203C6
:10576000A818984202DC85181B1AB618E00F5B00D7
:1057700001391B18640052080029F1D10022924619
:10578000904680222020120609E0AB4238D0E10F7B
:10579000C9180138CB1864005208002818D04146B7
:1057A0005118AB42F1DD8F18B846A946002930DB0D
:1057B0005B1B8C42AD416D425B1B641AE10FC91843
:1057C000013892444D46CB18640052080028E6D1B7
:1057D000234328D153465B083B4972108846424414
:1057E000F10702D5802109060B4361461E000F0513
:1057F000BD18300029001CBC90469946A246F0BD59
:10580000A142C4D88F18B846002942DB994600232C
:10581000D3E7002F2FDB6F1CB946C9E7E10F520019
:105820008A18640091E75346013335D0534601335B
:105830005B08D1E76B005B080343DAD00027002D3B
:1058400032D1E20A153F6405002AFAD080235B03B7
:105850001A4224D180200023400300E00B005200B4
:10586000591C0242FAD02020401AFF1A2300C340DC
:105870008C401A435FE7A9469AE72B0002002900F3
:1058800001F0C4F832002B0000F07CF906000D0096
:10589000AFE7002FBFDAB9E7013600239CE7012309
:1058A000002120205B42E0E72B000200290001F0EC
:1058B0002DFB02000B0000F075FC06000D0098E7C0
:1058C0000000F07F01FCFFFF0000E03F49004B08B3
:1058D0001900704700207047002001497047C046FA
:1058E0000000F87F02B4714649084900095C49008C
:1058F0008E4402BC7047C046002243088B4274D3DA
:1059000003098B425FD3030A8B4244D3030B8B42C0
:1059100028D3030C8B420DD3FF22090212BA030CC9
:105920008B4202D31212090265D0030B8B4219D3AA
:1059300000E0090AC30B8B4201D3CB03C01A5241CA
:10594000830B8B4201D38B03C01A5241430B8B4212
:1059500001D34B03C01A5241030B8B4201D30B03FB
:10596000C01A5241C30A8B4201D3CB02C01A524122
:10597000830A8B4201D38B02C01A5241430A8B42E5
:1059800001D34B02C01A5241030A8B4201D30B02CE
:10599000C01A5241CDD2C3098B4201D3CB01C01AE8
:1059A000524183098B4201D38B01C01A52414309F2
:1059B0008B4201D34B01C01A524103098B4201D3E0
:1059C0000B01C01A5241C3088B4201D3CB00C01A4D
:1059D000524183088B4201D38B00C01A52414308C5
:1059E0008B4201D34B00C01A5241411A00D20146EA
:1059F000524110467047FFE701B5002000F006F85D
:105A000002BDC0460029F7D076E770477047C04610
:105A10009140031C90409C46203A934019435242C7
:105A20006346D340194370478446101C62468C4637
:105A3000191C634600E0C0461FB500F085FF002832
:105A400001D40021C8421FBD10B500F0DFFE404266
:105A5000013010BD10B500F077FF002801DB0020F9
:105A600010BD012010BDC04610B500F06DFF00282C
:105A700001DD002010BD012010BDC04610B500F0B2
:105A8000FFFE002801DC002010BD012010BDC04633
:105A900010B500F0F5FE002801DA002010BD01204D
:105AA00010BDC046F0B5CE46474615042D0C2E005D
:105AB00080B50704140C3F0C9946030C7E435D43EC
:105AC000674363437F19340CE4199C46A54203D90C
:105AD00080235B029846C4444B46514343433604FB
