S014000077636D5F6669726D776172652E737265630D
S1130000201D0020D55A0000D15A0000D15A00000A
S113001000000000000000000000000000000000DC
S1130020000000000000000000000000D15A0000A1
S11300300000000000000000D15A0000D15A000066
S1130040D15A0000D15A0000D15A0000CD47000017
S1130050D15A0000D15A0000D15A0000D15A0000F0
S11300606D4700007D4700008D4700009D4700005C
S1130070AD470000BD470000D15A0000D15A00002E
S1130080D15A0000613A0000713A000000000000FB
S113009000000000813A0000D15A0000D15A00004B
S11300A0D15A0000D15A0000D15A0000D15A0000A0
S11300B00000000010B5064C2378002B07D1054B37
S11300C0002B02D0044800E000BF0123237010BDC0
S11300D0C00900200000000034E50000084B10B502
S11300E0002B03D00749084800E000BF0748036815
S11300F0002B00D110BD064B002BFBD09847F9E72D
S113010000000000C409002034E5000034E50000CC
S11301100000000010B504490448054B984701222B
S1130120044B1A7010BDC0462CA2FAFF6C0C0020C0
S113013079390000020A002010B5134B98470028B3
S113014012D1124C2000124B98472000114B9847B3
S1130150114B984700280FD0104C20000C4B9847A7
S113016020000C4B984710BD0D4C2000084B9847BD
S11301702000084B9847EBE70A4C2000044B9847B3
S11301802000044B9847EEE7511F000088CD000083
S1130190512500006D280000DD1B000008CE000082
S11301A0B0CD0000E0CD000030B5A3B020A80D4BC9
S11301B09847041E0BD0209A219B0B4968460B4D8F
S11301C0A84768460A4B9847200023B030BD209AC0
S11301D0219B05496846054DA8476846044B984746
S11301E0F2E7C046911C000038CE000005840000F0
S11301F05125000010B50C4B98470C4B98470C4BFD
S113020098470C4B98470C4B98470C4B98470C4B12
S113021098470C4B98470C4B98470C4B98470C4B02
S113022098470C4B984710BD55230000B50F0000AC
S113023049100000F5150000D11400000915000054
S113024075150000A5150000251500004D150000CA
S1130250D515000039010000F0B5D6464F46464694
S1130260C0B5CEB040AA002313709371D3715370FC
S11302709370137253729372D37213739373537391
S11302801374536193611377136253629385343308
S11302900021D1542C3BD370E023DB009380D34B5B
S11302A09362D34CD3492000D34B984723681A69EF
S11302B0002AFCD11A6802210A431A60CC4C00229D
S11302C0CE492000CE4B98472068CE4B9847CE4B62
S11302D01A5C1F231340012211009940CB4B196073
S11302E0637E01210B43637623685A720F32002127
S11302F02CA8C74CA0471022002128A8A047C54C11
S11303002000C54B98472000C44B98470022C44B9B
S11303101A70C44B9A46002398465446C04DC24EA8
S1130320534642461A700BE0C048BB4B9847BC4B3F
S11303301B78002B26D1BE4B9847002800D10DE333
S11303402378002BECD12B78002B1BD1B94B984789
S11303500028ECD0002328A92D225A540133082B5D
S1130360FBD10020B44B984708222CA928A8B34BF2
S113037098470028D8D10122A94B1A70B048A64B3F
S11303809847D4E7B0470028D5D00A20AD4B98470A
S11303902CA800230372AC49AC4B9847002824D006
S11303A02CA9AB48AB4B984708A8AB4B98470028FF
S11303B017D10898A94B9847009001910822A849A1
S11303C028A8A84B984708222CA928A89B4B9847F3
S11303D00028B0D0924B00221A70A3488E4B984745
S11303E0A9E7A2488C4B9847EDE7A1492CA8974B65
S11303F09847002818D02CA99548964B98479D4FAC
S1130400B8470528FCD00028DDD140212CA89A4B00
S113041098470028D7D02CAA402128A8914B984768
S11304200122964B1A70CEE795492CA8874B984722
S113043000280ED02CA98648864B98479148764BC5
S113044098476A496A48904B98470122754B1A703D
S1130450B9E78E492CA87D4B984700281CD02CA9BD
S11304607B487C4B98478A4B06AA08A904A8894F65
S1130470B84700280CD1089A099B009201930822DE
S1130480774928A8774B984701227C4B1A709AE742
S11304908148614B984796E780492CA86B4B984755
S11304A0002819D02CA96A486A4B984708A87C4BA5
S11304B0984700280CD1089A099B009201930822BE
S11304C0674928A8674B984701226C4B1A707AE752
S11304D07448514B984776E773492CA85B4B98476F
S11304E000280CD02CA95A485A4B98476F4B984770
S11304F0002800D167E76E48474B984763E76D498A
S11305002CA8524B984700280CD02CA95048514B8A
S11305109847694B9847002800D154E767483E4BF9
S1130520984750E766492CA8484B9847002828D09C
S11305302CA94748474B9847624B98470700624BA2
S11305409847624B1870624B9847624B1870624B25
S11305509847624B1870624B9847624B1870624B15
S11305609847624B1870624B9847624B18703B0077
S11305700822614928A83B4FB84701223F4B1A7013
S113058021E75E492CA8314B9847002800D11AE78F
S11305902D492F482D4B9847002806D028AA584BA0
S11305A003CB03C21B7813700DE738492848274B47
S11305B09847002800D1A5E0304B1B78012B0DD1C2
S11305C0334B1A685B68009201930822244928A8D7
S11305D0244B98470222294B1A70F4E628AA484B68
S11305E003CB03C21B781370EDE6C0462CA2FAFFBE
S11305F06C0C002000200042993600001501000018
S1130600C9390000613600004CCE000000E100E072
S11306107183000050CE0000512500006D280000B9
S1130620DC090020020A0020FD24000080CE000026
S1130630092500008D14000091230000D924000036
S113064064CE00008D480000ACCE0000818700001D
S1130650E009002049840000DD10000099800000BA
S1130660B4CE00000584000010D10000BCCE000010
S1130670F0CE000021250000B1290000000A00206E
S1130680FCCE000008CF00007939000020CF000024
S1130690F80900201920000028CF000058CF0000DE
S11306A0911C000064CF000090CF0000451E0000A4
S11306B0A4CF0000D4CF0000E51E0000E0CF00006E
S11306C00CD00000B1140000ED140000DF0900207C
S11306D065150000DD090020C5150000F0090020A3
S11306E03D150000010A002095150000030A0020B2
S11306F015150000DE09002014D0000018D00000F9
S113070020D00000CA49CB48CB4B9847002856D08C
S1130710CA4B1B78012B0AD1C94B1B780822C94943
S113072028A8C94FB8470222C44B1A704BE6022BC3
S11307300AD1C64B1B780822C24928A8C24FB84721
S11307400322BE4B1A703EE6032B0AD1C04B1B7822
S11307500822BC4928A8BC4FB8470422B74B1A70DA
S113076031E6042B0AD1BB4B1B780822B54928A8D3
S1130770B54FB8470522B14B1A7024E6052B0AD1B0
S1130780B54B1B780822AF4928A8AF4FB8470622BB
S1130790AA4B1A7017E6062B0AD1B04B1B78082215
S11307A0A84928A8A84FB8470722A44B1A700AE6FC
S11307B028AAAB4B03CB03C21B78137003E6A949E9
S11307C02CA89D4B9847002816D0A7492CA8A74FC2
S11307D0B847A5490020B847A54B98470700020031
S11307E0A4492CA8984B9847002F02D1A24B9847B4
S11307F0E9E5A24B9847E6E5A1492CA88E4B98471A
S1130800002816D098492CA8984FB847964900203C
S1130810B847974B9847070002009A492CA88A4B7F
S11308209847002F02D1984B9847CCE5974B9847AF
S1130830C9E597492CA8804B9847002816D08A49C7
S11308402CA88A4FB84788490020B847884B984756
S1130850070002008F492CA87B4B9847002F02D138
S11308608D4B9847AFE58D4B9847ACE58C492CA848
S1130870714B9847002816D07B492CA87B4FB8476A
S113088079490020B8477A4B984707000200854908
S11308902CA86D4B9847002F02D1834B984792E5C3
S11308A0824B98478FE582492CA8634B98470028D0
S11308B016D06D492CA86D4FB8476B490020B84736
S11308C06B4B9847070002007A492CA85E4B984767
S11308D0002F02D1784B984775E5784B984772E51D
S11308E077492CA8544B9847002816D05E492CA869
S11308F05E4FB8475C490020B8475D4B98470700F6
S1130900020070492CA8504B9847002F02D16E4B1F
S1130910984758E56D4B984755E56D492CA8464BCB
S11309209847002816D050492CA8504FB8474E4934
S11309300020B8474E4B98470700020065492CA891
S1130940414B9847002F02D1634B98473BE5634BDB
S1130950984738E56248634B984734E5402130A80E
S1130960614B9847002800D1EAE4604930A8324B33
S1130970984700281CD006A85D4B9847002813D13F
S113098006985C4B984702000B005B4908A82E4F61
S1130990B84708A8534B984730A8524FB847324835
S11309A0B8475648B847CBE455484E4B9847F3E709
S11309B0544930A8204B9847002815D006A8524B1C
S11309C0984700280CD106984A4B984702000B0020
S11309D04E4908A81C4FB84708A8424B9847DBE784
S11309E04B48404B9847D7E74A4930A8124B9847A1
S11309F0002800D19AE02D4B9847474B9847002890
S1130A000FD14648464B9847402108A8454B984784
S1130A10002809D008A8334FB8471348B8473748C7
S1130A20B847214B9847B7E73F482E4B9847F8E71C
S1130A300CD00000E009002081870000000A00209B
S1130A40DF09002014D0000005840000DD09002027
S1130A50F0090020010A0020030A0020DE0900201A
S1130A6020D000002CD0000038D00000898900007C
S1130A708D8200003CD00000C1140000D11400009D
S1130A804CD0000058D00000FD14000009150000EF
S1130A9068D0000074D00000251500003115000056
S1130AA080D000008CD000004D15000059150000C6
S1130AB09CD00000A8D0000075150000851500002A
S1130AC0B8D00000C4D00000A5150000B515000082
S1130AD0D4D00000DCD00000D5150000E5150000DE
S1130AE0E8D0000051250000AD2800003CD10000F2
S1130AF0DD1000009980000048D10000F4D100000E
S1130B0058D1000088D100008D11000094D100005C
S1130B10ACD10000E0D1000039250000ECD1000088
S1130B208D280000B52A0000FCD10000D44930A86B
S1130B30D44B9847002816D0D34B9847002800D1AF
S1130B402AE7D24B9847002800D025E7402130A857
S1130B50CF4B9847002800D11EE730A8CD4FB847A7
S1130B60CD48B84718E7CD4930A8C64B9847002868
S1130B700AD0CB48C74B9847CA49CB48CB4B984778
S1130B800122CB4B1A7007E7CA4930A8BD4B9847DE
S1130B90002829D004AB03AA06A902A8C64FB84767
S1130BA000281DD1029AC54908A8C54B9946984703
S1130BB008A8B84FB847039AC24908A8C84708A864
S1130BC0B847069A079BC04908A8C84708A8B84769
S1130BD0049A059BBD4908A8C84708A8B847DBE69E
S1130BE0BB48AC4B9847D7E6BA4930A8A54B9847C1
S1130BF0002808D0B84B9847002800D1CCE6B74865
S1130C00A44B9847C8E6B64930A89E4B984700289D
S1130C1008D0B44B9847002800D1BDE6B2489D4B9C
S1130C209847B9E6B14930A8964B9847002808D0B0
S1130C30AF4B9847002800D1AEE6AE48954B984795
S1130C40AAE6AD4930A88F4B984700283BD0AB4B60
S1130C5098470200AA4908A8994B9946984708A8BA
S1130C608C4FB847884B98470200A64908A8C84744
S1130C7008A8B847A44B98470200A44908A8C84745
S1130C8008A8B847A24B98470200A24908A8C84739
S1130C9008A8B847A04B98470200A04908A8C8472D
S1130CA008A8B8479E4B984702009E4908A8C84721
S1130CB008A8B8479C4B984702009C4908A8C84715
S1130CC008A8B84768E69A4930A86E4B98470028A8
S1130CD002D0984B98475FE6974930A8694B9847EC
S1130CE0002816D06C4930A8944FB8476A490020B0
S1130CF0B847934B984707000200924930A8704BBD
S1130D009847002F02D1904B984745E68F4B984760
S1130D1042E68F4930A85B4B9847002816D05E49BD
S1130D2030A8864FB8475C490020B847844B9847A1
S1130D3007000200874930A8614B9847002F02D171
S1130D40854B984728E6854B984725E6844930A883
S1130D504C4B9847002816D04F4930A8774FB847D6
S1130D604D490020B847764B9847070002007D495B
S1130D7030A8534B9847002F02D17B4B98470BE682
S1130D807A4B984708E67A4930A83E4B98470028A2
S1130D9016D0414930A8694FB8473F490020B847A9
S1130DA0674B984707000200724930A8444B9847A4
S1130DB0002F02D1704B9847EEE5704B9847EBE556
S1130DC06F4930A82F4B9847002816D0324930A8D5
S1130DD05A4FB84730490020B847594B9847070045
S1130DE00200684930A8364B9847012F02D1664B60
S1130DF09847D1E5654B9847CEE5654930A8214B26
S1130E009847002816D0244930A84C4FB8472249A7
S1130E100020B8474A4B9847070002005D4930A8B4
S1130E20274B9847002F02D15B4B9847B4E55B4BA7
S1130E309847B1E55A4930A8124B9847002816D074
S1130E40154930A83D4FB84713490020B8473C4BDB
S1130E50984707000200534930A8194B9847002FC0
S1130E6002D1514B984797E5504B984794E530A8E9
S1130E70084FB8470848B8474D48B847FFF760FAE5
S1130E80F0CE000081870000ED1400002125000051
S1130E90B12900005125000038D00000FCCE00002C
S1130EA008D200002CA2FAFF6C0C00207939000053
S1130EB0020A00202CD200001920000038D20000C1
S1130EC00584000044D2000050D2000068D2000023
S1130ED084D2000058CF0000A901000064CF0000B4
S1130EE090CF0000451E0000A4CF0000D4CF000026
S1130EF0E51E0000E0CF0000B0D20000B1140000F5
S1130F00C0D20000D0D2000015150000E0D20000CD
S1130F103D150000F0D200006515000000D300006C
S1130F209515000014D30000C515000024D300005B
S1130F3030D30000390100002CD000008989000062
S1130F408D8200003CD00000C1140000D1140000C8
S1130F504CD0000058D00000FD140000091500001A
S1130F6068D0000074D00000251500003115000081
S1130F7080D000008CD000004D15000059150000F1
S1130F809CD00000A8D00000851500007515000055
S1130F90D4D00000DCD00000D5150000E515000019
S1130FA0B8D00000C4D00000A5150000B51500009D
S1130FB0FCD1000010B58CB001AC20001D4B98474B
S1130FC007232371023B63701B4B1B78002B1CD03F
S1130FD00022194B1A70194C01AA19492000194B07
S1130FE098472268138C9BB2002BFBD107331371F3
S1130FF09371137802210B431370104B1A68138CEE
S11310009BB2002BFBD10CB010BD0C4B1A68138C97
S11310109BB2002BFBD10733137193711378022118
S11310208B431370054B1A68138C9BB2002BFBD1B6
S1131030D1E7C046B92B000000000020040A0020BC
S1131040000C0043FD2B000010B58CB001AC200057
S11310501D4B9847132323710E3B63701B4B1B7866
S1131060002B1CD00022194B1A70194C01AA1949E3
S11310702000194B98472268138C9BB2002BFBD19C
S1131080073313719371137802210B431370104BC0
S11310901A68138C9BB2002BFBD10CB010BD0C4B07
S11310A01A68138C9BB2002BFBD107331371937115
S11310B0137802218B431370054B1A68138C9BB26F
S11310C0002BFBD1D1E7C046B92B00000100002062
S11310D00C0A0020000C0043FD2B000070B5040036
S11310E0214B1B681A8C92B2002AFBD11A7E022172
S11310F00A431A761A8C92B2002AFBD101200426E4
S113110002259A79D2B201001140164200D0294337
S1131110154200D031430842F3D0988C80B20122AA
S11311209A719979C9B20A404D0701D502252A431B
S1131130890701D504210A43520703D502229A7173
S11311401E200FE0094B9847094B9847094A0A4B60
S11311500A4DA84700220A4B0A4DA8470A4B984754
S11311602060002070BDC046040A0020BD64000059
S1131170998000006666666666660A40D173000060
S113118000FEAF40696B00003D81000070B50400B3
S1131190214B1B681A8C92B2002AFBD11A7E0221C1
S11311A00A431A761A8C92B2002AFBD10120042633
S11311B002259A79D2B201001140164200D0294387
S11311C0154200D031430842F3D0988C80B20122FA
S11311D09A719979C9B20A404D0701D502252A436B
S11311E0890701D504210A43520703D502229A71C3
S11311F01E200FE0094B9847094B9847094A0A4BB0
S11312000A4DA84700220A4B0A4DA8470A4B9847A3
S11312102060002070BDC0460C0A0020BD640000A0
S1131220998000006666666666660A40D1730000AF
S113123000FEAF40696B00003D81000070B586B0D0
S11312400600174A53681E218B431A390B43536017
S113125003A8002404700E2343708470114B436070
S1131260047201254572104B984700200F4B984794
S113127001956B465C701C725C72012E0BD00023CE
S11312806A46137069460020094B98470020094BB1
S1131290984706B070BD03236A461370F2E7C04650
S11312A000400041001BB700FD540000BD55000084
S11312B0AD5700005958000070B506000D00140029
S11312C006220F4900200F4B9847002813D10C4BDE
S11312D01A783280597809020A4332809A782A802F
S11312E0D97809020A432A801A7922805B791B0281
S11312F01A43228070BD0448044B9847FAE7C0465D
S1131300140A0020A1500000A0D4000051250000C0
S113131010B50F4B1870000A58709970090AD970EB
S11313201A71120A5A71062219000020094B9847B3
S1131330002804D1084B9847002804D110BD074861
S1131340074B9847F6E70748054B9847F6E7C0462A
S1131350140A00201553000051510000CCD40000A1
S11313605125000000D50000F8B504000D0016005A
S1131370174B9847002811D016281AD01548164F35
S1131380B8471648B8471648B8471648B847164BE2
S113139098470F4B984700280FD0F8BD13480E4FBD
S11313A0B8471348B847320029002000114B98472A
S11313B0F3E71148084B9847EFE71048064FB84742
S11313C00F48B8473288298820880E4B9847E4E7AD
S11313D0754E0000B8D3000051250000E4D300008E
S11313E0FCD3000020D40000594F000040D300007B
S11313F060D30000B91200008CD3000054D4000064
S113140074D4000011130000F0B5C64600B51B4C9F
S11314100123984663700026A670194D80232B7013
S11314206E704346AB70EE70237021000820154F98
S1131430B84721000220B84721000620B847210000
S11314401220B84721001B20B84721001320B847B9
S11314502670667021001820B8476E70AE7043463F
S11314602B7029000720084CA04743462B70290005
S11314700B20A04704BC9046F0BDC0461C0A0020C7
S1131480200A0020814C0000715A000010B5054963
S113149080230B701820044B9847044B186AC00132
S11314A0C00F10BD200A0020715A0000002800401F
S11314B0024B1869C005C00F7047C04600280040A1
S11314C080225200014B5A617047C04600280040F8
S11314D010B580225200034B9A61C820024B9847F2
S11314E010BDC0460028004061480000024B186946
S11314F04007C00F7047C046002800400422014B3B
S11315005A617047002800400422014B9A617047D9
S113151000280040024B18690007C00F7047C046FE
S1131520002800400822014B5A61704700280040FF
S11315300822014B9A61704700280040024B186949
S11315404006C00F7047C046002800404022014BAF
S11315505A617047002800404022014B9A6170474D
S113156000280040024B18694003C00F7047C04672
S1131570002800408022D202014B5A617047C046C5
S1131580002800408022D202014B9A617047C04675
S113159000280040024B18690001C00F7047C04684
S11315A00028004080221205014B5A617047C04652
S11315B00028004080221205014B9A617047C04602
S11315C000280040024B18690003C00F7047C04652
S11315D00028004080221203014B5A617047C04624
S11315E00028004080221203014B9A617047C046D4
S11315F00028004010B58EB001AA642301931E4B4D
S1131600536000239360137313768021890311615F
S113161001214942D1829182253153549362083188
S113162053540131535401315354D7331386134B5C
S1131630D361134B1362134C13492000134B984787
S113164022680721D3691942FCD1136802210B4394
S113165013600C4BDC8800231020518B014204D111
S11316600133A342F9D310235383094B00221A7286
S11316705A729A720EB010BD480D0000030010009B
S113168003001100240A0020000C0042393000003D
S1131690300A002070B5A0B00D001600154908806E
S11316A0154B4B604A801548154B9847041E17D1BB
S11316B000232B60731EDB009BB2002E0DD00E4A5C
S11316C0F6009E1BB6B21178994028680143296040
S11316D0083B9BB20132B342F5D1200020B070BD6B
S11316E0020008496846084B98476846074B9847E4
S11316F0F3E7C046300A00203C0A0020240A0020F8
S113170025360000CCD500000584000051250000DA
S113171010B5A0B00F4C208061606280002B09D10D
S113172021000D480D4B98470400002C08D12000DF
S113173020B010BD07490848094B98470400F4E756
S1131740220008496846084B98476846074B984763
S1131750EDE7C046300A0020240A00203936000094
S11317604D360000FCD50000058400005125000022
S1131770F0B5A1B005001E0026AB1F8827AB1B786F
S11317800F4CA047041E0FD13A00310028000D4B26
S11317909847041E10D002000B4968460B4B98472B
S11317A068460B4B984707E002000A496846074B16
S11317B098476846064B9847200021B0F0BDC046C4
S11317C0111700009516000068D60000058400007B
S11317D0512500002CD60000F0B5A3B00500080088
S11317E01E0028AB1F886B46D91D0A700123020016
S11317F02800104CA047041E11D10F490D804E60E3
S11318004F800E480E4B9847041E10D002000D491D
S113181002A80D4B984702A80C4B984707E002001A
S11318200B4902A8084B984702A8084B9847200088
S113183023B0F0BD11170000300A0020240A002054
S1131840253600006CD500000584000051250000F9
S113185034D5000010B5A2B021AC217012786270AA
S11318600A4908804C604B8009480A4B9847041E7B
S113187002D1200022B010BD0200074901A8074B85
S1131880984701A8064B9847F3E7C046300A002062
S1131890240A002039360000A0D500000584000089
S11318A05125000070B582B06B46DC1DD87102234F
S11318B0220007214C200C4DA84705000600237880
S11318C0DB0704D4002E0AD1280002B070BDFA2030
S11318D08000064B98470648064B9847F2E70648AF
S11318E0044B9847F0E7C046551800008D480000A7
S11318F014D700005125000030D7000010B584B083
S1131900012300930E336B44052201214C200B4C20
S1131910A047041E09D10F226A44117803230B4007
S1131920137006D0200004B010BD0548054B98473D
S1131930F8E70548034B98470524F3E7D917000057
S1131940A4D6000051250000C8D6000010B584B00C
S11319500F236B4400221A700132009207320121D6
S11319604C200D4CA047041E10D10F226A4413785A
S113197007218B431370022301314C20074CA047ED
S1131980041E06D00648074B984702E00648054B5C
S11319909847200004B010BDD91700005518000066
S11319A0DCD7000051250000B0D7000010B584B08A
S11319B00F236B4400221A70013200921F3201215E
S11319C04C200E4CA047041E12D10F226A441378F7
S11319D07F218B4309210B431370022320214C20C8
S11319E0074CA047041E06D00648074B984702E060
S11319F00648054B9847200004B010BDD9170000D5
S1131A005518000080D700005125000054D700006D
S1131A1010B584B00F236B4400221A700E21694460
S1131A200A7001320092173201214C20194CA04750
S1131A30041E1FD1012300930D336B443B2201216B
S1131A404C20144CA047041E1AD10F226A44137868
S1131A500F218B431370013969440A780E208243A5
S1131A600A70A02B10D1202A07D00B480B4B9847A3
S1131A70012402E00A48094B9847200004B010BD35
S1131A800848064B9847F8E70748044B9847012451
S1131A90F3E7C046D91700008CD800005125000098
S1131AA008D8000034D8000060D8000010B584B015
S1131AB0012300930E336B440D2201214C20394C39
S1131AC0A047002855D1012300930D336B440E2207
S1131AD001214C20334CA04700284ED10E236B44E7
S1131AE01A7812020F236B441B7813432E4A138077
S1131AF0012300930C336B440F2201214C20294C09
S1131B00A04700283DD10123009303AB10220121FB
S1131B104C20244CA047002837D103AB1A7812027A
S1131B200D236B441B781343204A13800123009335
S1131B300A336B44112201214C201A4CA04700287F
S1131B4027D10123009309336B44122201214C2035
S1131B50144CA047041E20D10A236B441A781202A5
S1131B600B236B441B781343114A1380200004B0E9
S1131B7010BD1048104B9847A5E70E480E4B9847E8
S1131B80ACE70C480C4B9847BDE70A480A4B98470A
S1131B90C3E70848084B9847D3E70648064B9847DD
S1131BA0DAE7C046D9170000580A0020780A002056
S1131BB0980A0020ECD600005125000010B5034A15
S1131BC003490448044B9847002010BD880A0020AC
S1131BD0680A0020480A0020B912000010B51C4A07
S1131BE01C491D481D4B98471D4B9847041E19D18D
S1131BF000201C4B9847041E19D11B4B9847041E08
S1131C0019D11A4B9847041E19D1194B9847041E31
S1131C1019D10120134B9847041E06D01548164BC2
S1131C20984702E01548144B9847200010BD14480B
S1131C30114B9847F9E713480F4B9847F5E71248BB
S1131C400D4B9847F1E711480B4B9847EDE7C04619
S1131C50880A0020680A0020480A0020691300004E
S1131C60111A0000A51800004D190000AD1900005C
S1131C70BD1B000020DA0000512500003CD9000003
S1131C8064D9000094D90000C8D90000F8D9000034
S1131C90F0B5DE46574680B589B082464D4B98472D
S1131CA00500052800D187E0002800D080E04A4BD9
S1131CB09847051E00D089E0484B1888484A128886
S1131CC0801A00B21880474A1388474909885B1A6A
S1131CD01BB29B461380454B1E88454A1288B61A90
S1131CE036B21E80434FB847434C0022434BA047B3
S1131CF0434B029003910A00010019605A60584650
S1131D00B84700223D4BA0473E4B009001910A008A
S1131D10010019605A603000B8470022374BA047D1
S1131D2006000F00384B1E605F60029803990200A2
S1131D300B00A0470A000100344B02910392196082
S1131D405A600098019902000B00A0470A000100A4
S1131D502F4B0491059219605A6032003B00300009
S1131D603900A04706000F002A4B069607971E600D
S1131D705F60294E049A059B02980399B047069A1E
S1131D80079BB047254B984702000B000098019928
S1131D90234EB047234B9847234A244BA04753462E
S1131DA018605960280009B00CBC92469B46F0BDEF
S1131DB01F48204B9847F5E701201F4B9847051E05
S1131DC000D174E71D481B4B9847EBE71C48194B9F
S1131DD09847E7E7FD180000AD1A0000580A0020F4
S1131DE0480A0020780A0020680A0020980A002087
S1131DF0880A0020A57F0000D17300000000103F76
S1131E00500A0020700A0020900A0020400A002096
S1131E10600A0020800A002049650000515C00002F
S1131E20696B0000915B000072235D1ADCA54C40D5
S1131E304CDA000051250000A518000078DA0000F3
S1131E40A0DA000010B5184B9847040005281ED0EE
S1131E50002818D1154B9847041E21D1144B19881A
S1131E60144A9446614489B21980134B1888134B61
S1131E701880134B1980134B1A88134B1A80134B79
S1131E809847200010BD1248124B9847F9E70120EB
S1131E90114B9847041EDDD010480E4B9847F0E7CD
S1131EA00F480C4B9847ECE7FD180000AD1A0000F2
S1131EB0780A002000C0FFFF580A0020480A0020CA
S1131EC0680A0020980A0020880A002011130000E4
S1131ED0BCD8000051250000A5180000E8D8000077
S1131EE010D9000010B50023064A1380064A138057
S1131EF0064A1380002200210020054B9847002049
S1131F0010BDC046480A0020680A0020880A002044
S1131F101113000030B585B005000F21694400237A
S1131F200B7001930333009302AB01227620064C1D
S1131F30A047041E02D0200005B030BD029B2B60D8
S1131F401420024B9847F6E7711700008D480000F3
S1131F50F0B5C64600B584B003A91E230B70002358
S1131F6001227620244CA047041E34D10B2169445D
S1131F70A0230B70002301930233009303AB0122CF
S1131F8076201E4CA047041E2DD11D4E039B1B041E
S1131F901B0F338014201B4B98470236A2270B25B6
S1131FA06D44164B98462F7000230193023300931F
S1131FB003AB012229007620C047041E17D16B46CB
S1131FC09B89338014200F4B98470237FFB20236A7
S1131FD0AE2FE8D102E00C480C4B9847200004B027
S1131FE004BC9046F0BD0A48084B9847F6E70948F8
S1131FF0064B9847F2E7C04611170000711700001E
S11320009C0A00208D480000CCDA00005125000015
S1132010F0DA00001CDB0000F0B5DE4657464E4601
S11320204546E0B591B006008B46150098460FA9C9
S113203048230B70002301227620A44CA0470400FF
S11320401420A34B9847002C00D0DBE00FA8A14B31
S11320509847041E00D0D9E09F4B0F9A1A600EAB2C
S1132060D91C58230B70002301227620974CA047DB
S113207004001420964B9847002C00D0CAE00FA807
S1132080944B9847041E00D0C8E00F98934B1860F7
S1132090914B1B689A4633602860914FB847009073
S11320A00191904B99465889B8478F4D00228F4B28
S11320B0A84702000B00009801998D4EB04700908C
S11320C001914B469889B847009A019BA847002282
S11320D0FA239B05A847874E0022874BB0470290FE
S11320E003914B461889B847009A019BA8470022E0
S11320F0824BA847049005914B469888B847002224
S11321008223DB05A84702000B0004980599B04719
S1132110089009914B46D888B847009A019BA84774
S11321200022FE239B05A847049005914B4658883E
S1132130B8470022724BA84702000B000498059987
S1132140B0470A900B9100226B4B029803996D4D96
S1132150A847002866D0644D00226B4B009E019F67
S113216030003900A84732003B00A8470022674BE3
S1132170A8470690079100225F4B029803995C4E92
S1132180B04702000B00A8470022614BA847060095
S11321900F0000225F4BA8470090019100225E4B84
S11321A030003900A8470490059100225B4B029E41
S11321B0039F30003900534DA847002848D04D4DA7
S11321C00022574B30003900A847474E02000B004D
S11321D0B0470022534B0C900D91B04702000B0006
S11321E000980199A8470090019100224E4B0C9849
S11321F00D99B04702000B0004980599A847049074
S1132200059125E049484A4B984757E04948484BCF
S1132210984753E04848464B98474FE04748444B5B
S113222098474BE0304D0022454B009E019F300003
S11322303900A84732003B00A8470022414BA84779
S113224006900791002200230492059300920193C3
S1132250274D049A059B0A980B99A8470490059169
S113226050461F4B984702000B001F4E04980599D7
S1132270B0470022344BB04704900591009A019B6B
S113228008980999A84702000B0004980599A847E3
S11322900022FC239B05B0472C4E00222C4BB04758
S11322A05B4618605960069A079B02980399A847F1
S11322B00022274BB047434618605960200011B0F4
S11322C03CBC90469946A246AB46F0BD11170000AF
S11322D08D480000151F0000AC0A0020B00A002041
S11322E0298000009C0A0020D17300000000704087
S11322F0D17800004965000000409F400000903FF5
S11323000000F04019640000000008400000E03DB7
S11323100000B03F00804E4000003D40007097C078
S11323200070974000003140000022405CDB000058
S11323305125000088DB0000B8DB0000E4DB00006E
S1132340000014400000903D0000A03E696B0000B6
S11323500000594010B5064B98470020054B98479C
S1132360054B98470020054B9847054B984710BDEF
S1132370091400003D1200004928000091230000C8
S1132380214800000122014B1A707047F00A002016
S113239070B58EB00600002401940294C0239B0300
S11323A003936B461C745C7401259D74DD741C7569
S11323B024236A46D4540C22002106A8374B98479C
S11323C06B461C7020236A46D5540694344B0A93FA
S11323D0344B0B93344B0C93344B0D93344B1B788D
S11323E0002B28D00022324B1A70324C6A463249F4
S11323F02000324B9847022231492000314B984744
S11324003722A35C04210B43A354256828002E4BD8
S113241098471F2318401E3B83402C4A13602268B0
S1132420D369002BFCD12B68022213432B60012EAD
S113243019D00EB070BD1F4D2C682000224B984758
S11324401F2318401E3B8340802220498B502A685A
S1132450D369002BFCD18F332375237623680222A2
S113246093432360C1E71A481A4B9847114D2C68CF
S11324702000154B98471F2318401E3B83408022A1
S113248012498B502A68D369002BFCD18F332375F2
S113249023762368022293432360CAE771830000F2
S11324A003001600030017000300180003001900BE
S11324B002000020B40A002000040043F13E0000A2
S11324C085230000254100003D47000000E100E0B5
S11324D014DC00005125000010B50024044B1C70CE
S11324E093B20A0001000348034CA04710BDC04644
S11324F0F00A0020B40A00203D410000014B187886
S1132500C0B27047F00A0020044B1B681B7E5B07B7
S113251001D4052070470020FCE7C046140B0020BE
S1132520044B1B681B7E5B0701D405207047002009
S1132530FCE7C046040B0020044B1B681B7E5B07B2
S113254001D4052070470020FCE7C046F40A0020AF
S113255010B50400034B984782B221000248034B94
S1132560984710BD59840000180B0020353E000028
S113257030B591B004008023DB0500930023019360
S1132580FF2269460A8100228B72CB72012124202A
S11325906D4629540130295425316B5401316B5453
S11325A00A938821490303912C216B5401316B5404
S11325B005932B82EB762A762A776A761323AB76F9
S11325C06A7796231B02089301235B420C931C4AEF
S11325D00D921C4A0E920F931B4B1B78002B18D0A4
S11325E00022194B1A70194D6A4619492800194BD3
S11325F098472A68D369002BFCD1136802210B4346
S11326001360012C0FD0114B1A68134B1A6011B0D0
S113261030BD0E4B1A68D369002BFCD1136802211C
S11326208B431360DFE70D480D4B9847074B1A683F
S1132630D369002BFCD1136802218B431360E2E7BA
S11326400300090003000A0003000020180B002007
S113265000080042913A0000140B002054DC0000F2
S11326605125000030B591B004008023DB050093B0
S113267000230193FF2269460A8100228B72CB72E8
S1132680012124206D4629540130295425316B54ED
S113269001316B540A9305316B5401316B5405932A
S11326A02B82EB762A762A776A761323AB766A77BF
S11326B096231B02089380235B03039303230C9349
S11326C01C4B0D9301235B420E930F931A4B1B7803
S11326D0002B18D00022184B1A70184D6A4618495E
S11326E02800184B98472A68D369002BFCD113683B
S11326F002210B431360012C0FD0104B1A68124BAC
S11327001A6011B030BD0D4B1A68D369002BFCD18F
S1132710136802218B431360DFE70C480C4B984786
S1132720064B1A68D369002BFCD1136802218B4332
S11327301360E2E70300010004000020080B0020FE
S113274000040042913A0000040B00203CDC00002D
S11327505125000030B591B004008023DB050093BF
S113276000230193FF2269460A8100228B72CB72F7
S1132770012124206D4629540130295425316B54FC
S113278001316B540A9305316B5401316B54059339
S11327902B82EB762A762A776A761323AB766A77CE
S11327A096231B02089380235B0303931E4B0C9315
S11327B01E4B0D9301235B420E930F931C4B1B780E
S11327C0002B19D000221A4B1A701A4D6A46842124
S11327D0C9052800184B98472A68D369002BFCD1F7
S11327E0136802210B431360012C0FD0114B1A689C
S11327F0124B1A6011B030BD0E4B1A68D369002B0E
S1132800FCD1136802218B431360DEE70C480D4BA7
S11328109847084B1A68D369002BFCD1136802212E
S11328208B431360E2E7C046030004000300050085
S113283005000020F80A0020913A0000F40A002064
S113284024DC00005125000010B50020044B9847FB
S11328500020044B98470020034B984710BDC04606
S113286071250000652600005527000010B50400FE
S1132870034B984782B221000248034B984710BD8E
S113288059840000080B0020353E000010B50400F8
S1132890034B984782B221000248034B984710BD6E
S11328A059840000F80A0020353E0000F0B585B0D8
S11328B005000191002202ABDA8000260027324C89
S11328C002AB991D3148A04700281CD102ABDB881C
S11328D00A2B08D07A1CEB550D2B07D0019B9A428A
S11328E00BD01700ECE7002EEAD020E0AB18013B38
S11328F00021197017000126E2E7AA18013A002303
S11329001370002613E00528DAD01A2812D01E28E6
S113291017D013281CD01C2821D0422826D04128A7
S11329202BD01B221A4928001A4B98470026300046
S113293005B0F0BD292218492800164B98470026F7
S1132940F5E7272215492800124B98470026EEE7A1
S11329502722134928000F4B98470026E7E7252232
S1132960104928000B4B98470026E0E727220E4920
S11329702800084B98470026D9E72F220B49280046
S1132980044B98470026D2E7D13D0000180B0020E5
S113299068DD0000ED8200006CDC000098DC0000C3
S11329A0C0DC0000E8DC000010DD000038DD0000C1
S11329B0F0B585B005000191002202ABDA80002653
S11329C00027324C02AB991D3148A04700281CD186
S11329D002ABDB880A2B08D07A1CEB550D2B07D0F1
S11329E0019B9A420BD01700ECE7002EEAD020E0BE
S11329F0AB18013B0021197017000126E2E7AA1861
S1132A00013A00231370002613E00528DAD01A28AF
S1132A1012D01E2817D013281CD01C2821D04228DD
S1132A2026D041282BD01B221A4928001A4B98473C
S1132A300026300005B0F0BD292218492800164BA5
S1132A4098470026F5E7272215492800124B984796
S1132A500026EEE72722134928000F4B984700264B
S1132A60E7E72522104928000B4B98470026E0E7AA
S1132A7027220E492800084B98470026D9E72F2221
S1132A800B492800044B98470026D2E7D13D0000AB
S1132A90080B002068DD0000ED8200006CDC000003
S1132AA098DC0000C0DC0000E8DC000010DD000061
S1132AB038DD0000F0B585B005000191002202ABBD
S1132AC0DA8000260027324C02AB991D3148A0471A
S1132AD000281CD102ABDB880A2B08D07A1CEB55EA
S1132AE00D2B07D0019B9A420BD01700ECE7002E68
S1132AF0EAD020E0AB18013B002119701700012631
S1132B00E2E7AA18013A00231370002613E005280F
S1132B10DAD01A2812D01E2817D013281CD01C284B
S1132B2021D0422826D041282BD01B221A49280024
S1132B301A4B98470026300005B0F0BD29221849E9
S1132B402800164B98470026F5E727221549280048
S1132B50124B98470026EEE72722134928000F4B13
S1132B6098470026E7E72522104928000B4B984791
S1132B700026E0E727220E492800084B9847002644
S1132B80D9E72F220B492800044B98470026D2E7A7
S1132B90D13D0000F80A002068DD0000ED8200004D
S1132BA06CDC000098DC0000C0DC0000E8DC000005
S1132BB010DD000038DD000010B500230022037092
S1132BC043708370C370002103830362C3610124D3
S1132BD00471C0246401C480017242728272C272A0
S1132BE002732A24025542738273C273036102750D
S1132BF0063C0255C3840385417510BDF0B5CE462D
S1132C0000B59AB0050016000160B54A136A0820A1
S1132C10034313620B780338DB0703D51AB004BCF3
S1132C209146F0BD2A68138C9BB2002BFBD10B7824
S1132C301C209B07F2D473782B71002B04D1A94A72
S1132C40D36904210B43D3612F6833786A46137028
S1132C5069461E20A44B98471E20A44B98473479FC
S1132C606022A34902A8A34B9847132C0BD9F488DC
S1132C7060229F4902A89F4B9847132C11D9002426
S1132C809C4B99461EE0A40002ABE05801A9002326
S1132C904B70CB708B7001330B70C0B2964B98475E
S1132CA0E5E7A40002ABE05801A900234B70CB7008
S1132CB08B7001330B70C0B28F4B9847DFE7013440
S1132CC0142C18D00123A34032691A42F7D0602291
S1132CD0874902A8C847132CF1D8A30002AA985820
S1132CE001A900234B70CB708B7001330B70C0B201
S1132CF0814B9847E3E7737B9B01B27BD20113437B
S1132D00DBB23B70337DDB0172781343DBB2BB7003
S1132D10F378342B00D933E19B00784AD3589F468B
S1132D200422102402211AE0717A327A102416E067
S1132D3006221024012112E00822102400210EE0B2
S1132D400022302400210AE000222024002106E091
S1132D5000220024002102E00222102401210901A2
S1132D6070230B4013433B732A68138C9BB2002BD4
S1132D70FBD1737D17203F2B00D94FE7F27BD201A3
S1132D801343DBB27B732A68138C9BB2002BFBD1F9
S1132D90B3787B702423F35CDB00327B92001A430C
S1132DA0F37A1343B27A5200134323437B812A6894
S1132DB0138C9BB2002BFBD1338B002B1FD0102C18
S1132DC000D1BFE06BD9202C00D19DE0302C16D16E
S1132DD0F27A002A0AD0F26980321720FF2A00D939
S1132DE01CE7326A8032FF2A00D917E71720F269FC
S1132DF0FF2A00DD12E7326AFF2A00DD0EE77A8936
S1132E0013437B812A68138C9BB2002BFBD1B38BB9
S1132E10FB812A68138C9BB2002BFBD1338C3B8241
S1132E202A68138C9BB2002BFBD13379F2881343AD
S1132E303B812A68138C9BB2002BFBD12A33F35CB1
S1132E40FB7007233B711D33F35C002B1BD0F38C09
S1132E502B4A1720934200D9E0E67B822A68138C20
S1132E609BB2002BFBD1328D80231B01D318244944
S1132E709BB217208B4200D9D0E6BA822A68138C01
S1132E809BB2002BFBD11F4B1B681A02E021C90027
S1132E900A409B065B0F1343BB850020BEE6002C53
S1132EA0ADD1F27A002A0FD0F269802109018C4653
S1132EB06244134917208A4200D9AFE6326A624459
S1132EC00F498A4200D9A9E60D4A1720F1699142B7
S1132ED000DDA3E6316A914200DD9FE68FE7C0463C
S1132EE0000400400014004075590000055900001A
S1132EF058DE0000ED820000715A000084DD0000FD
S1132F00FF0F000020608000F27A002A0FD0F269DF
S1132F10802189008C4662441A4917208A4200D9CC
S1132F207CE6326A624417498A4200D976E6154A39
S1132F301720F169914200DD70E6316A914200DDAB
S1132F406CE65CE7F27A002A0FD0F269802109026C
S1132F508C4662440C4917208A4200D95EE6326AE4
S1132F60624409498A4200D958E6074A1720F169A0
S1132F70914200DD52E6316A914200DD4EE63EE7C1
S1132F8017204BE6FF030000FFFF0000064A1378FA
S1132F9002210B431370012053681942FCD153687A
S1132FA01842F9D17047C0460024004000B583B0F0
S1132FB0174A516980239B000B43536101A90023E5
S1132FC00B700320134B98470320134B9847134A65
S1132FD0137801210B431370013101205368194206
S1132FE0FCD153681842F9D10C4A137810218B4351
S1132FF013700B4B19004031002204C38B42FCD1E7
S11330000822084B1A60084B984703B000BDC0461D
S113301000040040755900000559000000240040D8
S1133020880C002000E100E08D2F000001680722D9
S1133030CB691A42FCD17047F0B5D6464F46464696
S1133040C0B58AB007000E001400396008009C4B1C
S11330509847052800D12BE105001235994AD1691A
S1133060012383400B43D36109A9237B0B70EDB289
S11330702800954B98472800944B9847207B0021C3
S1133080934B984733681C209B0705D50AB01CBC9A
S113309090469946A246F0BD33681738DB07F5D44D
S11330A0142333603B6898461800854B9847050005
S11330B0802308AA137000235370012208A98A7080
S11330C0CB70E069266A002800D1AEE008AB187026
S11330D0022308AA5370000CC0B211007D4B98471C
S11330E0002E00D1A6E008AB1E70022308AA53707C
S11330F0360CF0B21100774B9847A38AFB80E38A21
S11331003B81237E8022002B04D1734B9B789B0749
S1133110DB0FDA01A16823690B4313432422A25C69
S1133120002A02D08022D2051343A26A13432C2220
S1133130A25C002A03D180229204914202D180220F
S1133140120513432D22A25C002A02D0802212040D
S113315013432E22A25C002A02D08022D2031343FE
S11331604246126813434246136080235B00536057
S11331701235E8B2594B98470790FA239B0022680E
S11331805A43914663689A46554DA8470090019169
S11331904B465800A84702900391208EA8470490FC
S11331A00591504F504A514B00980199B84702007D
S11331B00B0004980599B8474D4E00224D4BB0477B
S11331C0049005914846A84702000B00049805990D
S11331D0B84702000B00484D00980199A847029A8D
S11331E0039BB0470022454BA847029A039B444DDA
S11331F0A847444B9847050080239B04A2689A4241
S11332001ED003004020FF2D00D93FE700240020FA
S1133210FF251D40240625430004FF231B041840FA
S113322005434346DD60002030E700214046364B2D
S113323098474BE701214046334B9847060052E735
S1133240FA26B60053465E430098019902000B002B
S1133250274CA047009001913000214B9847002251
S11332602A4BB84702000B0000980199244CA04750
S11332700022224B204CA047224B9847041E0CD01E
S113328031000798224B98470238001B2B00FF2D72
S11332900CD8FF28BCD94020F8E67100481E079BD3
S11332A09C4660441A4B98470138EFE74020EDE60E
S11332B0044A136A02210B4313621825D4E6C0465C
S11332C0C54600000004004075590000055900007F
S11332D01D450000715A000000200041995900006A
S11332E029800000D173000095D626E80B2E113EEC
S11332F04965000000002440D17800000000F03F40
S1133300696B00003D7F0000694500000000084033
S1133310D562000003681A7E920707D502221A7646
S11333205B8B9B074120DB17184070475A8B520771
S113333006D55968C02292020A435A601820F4E75D
S11333400020F2E730B50268002301240225117E33
S113335021420BD1117E294206D101339BB201894E
S11333609942F4D8122002E0002000E0002030BD91
S113337010B5046862688023DB02134363606162F2
S1133380024B98470123237610BDC0464533000005
S1133390F0B5DE4657464E464546E0B583B00600D6
S11333A0894605684C882B681B01DB0F9A464B7ACB
S11333B0002B2BD16B68584A13406B604B461B7A29
S11333C0002B27D14B461B885B004A46527A920356
S11333D01343012213436B623000504B9847019012
S11333E05346002B03D04B465B88012B3BD06B68C4
S11333F0494A13406B60019B002B3AD0019803B0FB
S11334003CBC90469946A246AB46F0BD897A444BF3
S11334109847CFE74B461B885B004A46527A920393
S113342013438022120213436B6230003B4B9847D4
S113343001906B68384A13406B600028DED130007D
S1133440384B984701900028D8D14B461B881B0A5B
S1133450782213435B004A46527A920301210A43BD
S113346013436B62B8E76A688023DB0213436B6023
S1133470C1E730002B4B984701900028BED1013C96
S1133480A4B28046284B9B4615E0012C20D0300086
S1133490264B984743465F1CBFB22823EB5C4A4641
S11334A052684146535430001C4B9847013CA4B227
S11334B0002815D1B8465C4514D06B8B9B0627D5E4
S11334C0F37A002BE3D05346002BDED1002CDED15F
S11334D06A688023DB0213436B60013CA4B2EAE711
S11334E0B8460190B37A002B09D130000F4B9847AE
S11334F02823EA5C4B465B6841465A547EE7300019
S11335000A4B98476A68C0239B0213436B60ECE73D
S11335104123019372E7C046FFFFFBFF45330000E0
S11335207133000015330000FFFF00002D30000050
S1133530F0B5DE4657464E464546E0B583B0060034
S11335400F0005684C88324B98477B7A002B1DD1BD
S11335506B68304A13406B603B7A002B1BD03B886E
S11335605B007A7A920313438022120213436B6244
S11335703000294B98470190002813D0019803B0DC
S11335803CBC90469946A246AB46F0BDB97A3000A1
S1133590224B9847DCE73B885B007A7A920313431B
S11335A06B62E5E730001E4B9847031E0190E5D19E
S11335B0A046002420339946154B9B46164B9A4649
S11335C0444515D06B8B4A4613421DD03000D84772
S11335D07B681A5D2823EA543000D047002806D1BE
S11335E06B8B01345B07EBD51E23019300E0019044
S11335F0B37A002BC2D03000054B98476A68C023C9
S11336009B0213436B60B9E741230193B6E7C046BD
S11336102D300000FFFFFBFF453300007133000035
S11336201533000010B501238372C372014B984710
S113363010BDC0469133000010B501238372C372DC
S1133640014B984710BDC0463135000010B500232A
S113365083720133C372014B984710BD31350000AA
S113366030B585B001AA0B4B32CB32C2019B9842D4
S11336700DD0029B984208D00023039A824202D0C4
S1133680180005B030BD023302E0012300E000233E
S1133690DBB2F5E7E0DE0000F0B5C64600B58AB05F
S11336A004000D0016000800AA4B9847804609AB99
S11336B01B221A705A7002329A7003A9A64B0C335B
S11336C00A0083CB83C283CB83C20023A360E3605D
S11336D0236163612376637643469A009F4BD450FB
S11336E025603423F35CA376F378082B08D0237188
S11336F02B680520DB0708D50AB004BC9046F0BD52
S113370017204246D207F7D4F1E7EB7A17309B072C
S1133710F2D42B689B07EFD4337C002B12D1337F78
S1133720002B1BD143465A0003A9531C9B00585835
S11337304346DB005B58D9B2042923D88B0088495F
S1133740CB589F4602A901238B700022CA70327E97
S11337500A704B70307D834B9847E0E702A9012340
S11337608B700022CA702432B21812780A704B701F
S11337701F33F31818787B4B9847D3E77A494B6982
S113378018434861F378082B00D185E001A9337808
S11337900B7009AB42469F5C3800744B9847380065
S11337A0734B9847F378F2791343B2881343727AD0
S11337B0002A02D0802252021343B27A002A02D095
S11337C0802292021343F27A002A02D0802252030A
S11337D01343327B002A02D0802292031343717870
S11337E08901B278D2011143194322681369002B6D
S11337F0FCD1296022681369002BFCD1B3792B73A7
S1133800717B4B1E99418900B37B002B01D00123AE
S1133810194322681369002BFCD1FF332B71002953
S113382004D022681369002BFCD16971337A6B735D
S113383022681369002BFCD12379042B59D0082B5F
S113384074D01720002B00D056E71369002BFCD14D
S1133850338DAB8222681369002BFCD1738DAB834B
S113386022681369002BFCD1B38DEB83002043E75E
S11338703D498B691843886184E73B49CB69184308
S1133880C8617FE738490B6A184308627AE7364B08
S1133890596A0843586275E743460133022B00DD39
S11338A074E703ABD11C8900C95802329200D35883
S11338B0DAB2042A00D969E793002E4AD3589F4606
S11338C0294A53691943516160E7274A93691943A7
S11338D091615BE7244AD3691943D16156E7224ACF
S11338E0136A1943116251E71F4B5A6A1143596213
S11338F04CE71369002BFCD12833F35C2B75226849
S11339001369002BFCD12933F35CEB76226813692D
S1133910002BFCD12A33F35C2B7722681369002B2C
S1133920FCD12B33F35C6B770020E5E61369002BA5
S1133930FCD1B36A6B6122681369002BFCD1F36A72
S1133940EB6122681369002BFCD1336B2B620020DE
S1133950D2E6C04661360000E0DE0000C80C00205C
S1133960B8DE0000715A00000004004075590000E0
S113397005590000CCDE000002681369002BFCD15D
S11339800379042B05D0082B0BD01720002B04D06F
S11339907047C9B211750020FAE789B291820020FC
S11339A0F6E751610020F3E710B5044B9847044B48
S11339B09847044B9847002010BDC046A55A000004
S11339C0F501000059020000931C9B001950022AC3
S11339D009D0032A0CD0012393401A00037E134319
S11339E0037600207047037E102213430376F8E722
S11339F0037E202213430376F3E7000070B58000B2
S1133A00164BC45823689D7A227E637E13401D4062
S1133A10EB0706D4AB070BD4EB0610D4AB0615D4D6
S1133A2070BD2000A3689847012322689372F1E7D0
S1133A302000E3689847022322689372ECE7200091
S1133A4023699847102322689372E7E7200063698B
S1133A509847236820229A72E2E7C046C80C0020E7
S1133A6010B50020014B984710BDC046FD39000039
S1133A7010B50120014B984710BDC046FD39000028
S1133A8010B50220014B984710BDC046FD39000017
S1133A90F0B5DE4657464E464546E0B591B00600C1
S1133AA00C00150031600800B54B9847020005284A
S1133AB00DD007001237030021680520C90709D576
S1133AC011B03CBC90469946A246AB46F0BD1827BF
S1133AD00123F1E7216817308907F1D4052A49D079
S1133AE0A849C86901229A4013000343CB610FA976
S1133AF02D239846EB5C0B70FFB23800A24B98471D
S1133B003800A24B98474346E85C0021A04B9847F5
S1133B10EB7A73712423EB5CB3712523EB5CF371B3
S1133B20EB7E33722B7F7372336898461800944B84
S1133B309847052826D0123000220E2306A98C4669
S1133B4063441A802A8A02928023DB019A4200D1BC
S1133B50A8E019D9C023DB01029A9A4200D19CE063
S1133B6080231B029A4200D005E10323069300231D
S1133B70079312E08349086A043A9A401300034306
S1133B800B62B4E71820D7E780239B019A4200D048
S1133B90F1E0102306930F3B07932B689B46EB68D9
S1133BA005936B6904932B7E03932623EB5C9A465F
S1133BB06B689946002B00D19CE080235B059945F6
S1133BC004D12723EB5C002B00D181E06B7E002B1A
S1133BD002D0AB7E424693730E2306AA94466344F6
S1133BE01B88424693815B46059A1343049A134308
S1133BF04A461343029F1F43039B1B021F43534622
S1133C005B071F432723EB5C002B01D104331F43C5
S1133C106B7E9B022A7F520213436A7F1202134374
S1133C202422AA5C520413432522AA5C12041343DF
S1133C30A97AEA7A114319432B89FF2B7ED080227B
S1133C405204174319432C23EB5C002B03D1514B33
S1133C509B789B0701D580231F433268D369002BCF
S1133C60FCD1434659603268D369002BFCD14346EA
S1133C701F600EAB80221A7000225A70DA709A709C
S1133C802B6B0A936B6B0B93AB6B0C93EB6B0293E9
S1133C900D9300270AAD404E5EE008230693073BD0
S1133CA007937AE72B689B46EB6805936B6904934B
S1133CB02B7E03932623EB5C9A466B689946002B74
S1133CC014D080235B05994500D17AE7002020E0D9
S1133CD02B6A1F00C0B2314B984701000E2206AB7D
S1133CE09C46624438002E4B984712E00823069302
S1133CF0002307932723EB5C002B0ED0069B009335
S1133D00079B0E2206A98C466244A96A286A254F9D
S1133D10B847002800D0D3E658E72B6A1F00C0B28A
S1133D201E4B98470100069B0093079B0E2206A892
S1133D308446624438001B4FB847EAE7EB7E002B09
S1133D4081D08023DB041F437DE72000164B984776
S1133D5007E00137042F0CD0F9B2BB0058590028F2
S1133D60F3D0431CF5D00EA90870000CC0B2B047C4
S1133D70EFE70020A4E610230693002307930CE743
S1133D80C5460000000400407559000005590000B4
S1133D901D45000000200041715A0000995900009F
S1133DA05F4400008944000069450000C2791C2377
S1133DB0002A01D1180070470268107E173BC00723
S1133DC0F8D511850221137E0B42FCD00023F1E7C4
S1133DD082791C23002A01D1180070470268107EE2
S1133DE0173B4007F8D5538BDBB298061DD09807D4
S1133DF003D5022353831833EEE7580703D504236E
S1133E0053831A33E8E7D80703D5012353831233C6
S1133E10E2E7D80603D5102353833233DCE79B064D
S1133E2003D5202353832133D6E7138D0B8000233E
S1133E30D2E70000F0B5CE46474680B583B0050012
S1133E4001911720002A04D103B00CBC9046994676
S1133E50F0BDEB790530002BF6D02C68013A93B213
S1133E60994600260127204B984611E0731C9BB20B
S1133E70019A915D6A79012A17D089B21E0028003F
S1133E801A4B98474B46013B9BB29946434513D086
S1133E90237E3B42EAD1144B227E3A42E6D1012BE7
S1133EA019D0013B002BF7D1E0E70236B6B2019AF4
S1133EB0D35C1B021943E2E7237E9B070DD40A4B14
S1133EC00221227E0A420AD1012B0AD0013B002B97
S1133ED0F7D10020B8E71220B6E70020B4E70020AD
S1133EE0B2E71220B0E7C046FFFF0000AD3D00007E
S1133EF0F0B5C64600B588B005000C001600296070
S1133F000B681C209B0703D508B004BC9046F0BD89
S1133F100B681738DB07F7D40800754B984705285A
S1133F2000D1DDE007001237724AD16901238340D2
S1133F300B43D36107A924239846F35C0B70FFB2AB
S1133F4038006D4B984738006C4B98474346F05CFB
S1133F5000216B4B98473378012B3FD03378002BEB
S1133F6003D123680822134323602B000C33290058
S1133F702831002204C39942FCD10023EB62AB62D6
S1133F800024AB862B863633EC540133EC540133D6
S1133F90EC54353B6B722C712868554B98470700DD
S1133FA05849594B9847BF00584BFD502F6802ABF6
S1133FB080221A705C707F3A9A70DC703378002B20
S1133FC002D1002202AB9A70B36A0393F36A04939A
S1133FD0336B0593736B069300240BE023680C2268
S1133FE013432360BAE73800494B98470AE0013489
S1133FF0042C10D0E1B2A3006A460C201218D05849
S11340000028F0D0431CF2D002A90870000CC0B202
S1134010404B9847EBE733786B71337CAB71B37CDF
S1134020EB71337D2B7200226B46DA803378012BDF
S113403012D03378002B26D1B069B28B7B6AF17F22
S11340400904B47F2143194379622023F35C002BD4
S11340501BD040231A4318E02868254B9847123098
S1134060C0B22D4B984701006B469A1DB0692B4B8B
S1134070984703001720002B00D045E76B46063312
S11340801B783B73D5E7002200207368B1680B43AB
S1134090F1680B430343317C0A43717C002903D14B
S11340A01F498978890701D580210B43B17C0029F8
S11340B002D0802189020A43F17C002902D08021A8
S11340C089000A43317D002902D0802189010A43F5
S11340D039680B433B607B681A437A60002013E71E
S11340E0044A136A02210B431362182722E7C046CD
S11340F0C546000000040040755900000559000041
S11341001D4500008141000001470000D80C00203B
S113411069450000715A0000995900005F4400008D
S113412000200041931C9B00C318596036210123D1
S113413093401A00435C13434354704730B517242B
S1134140002B01D1200030BDC5790534002DF9D0F4
S11341501C34055D333C052DF4D0838603868262CE
S1134160C16205223823C254363B437203689A75F0
S113417042790024002AE5D102321A769A75E1E7E1
S1134180F8B58000854BC45826683723E35C362293
S1134190A75C1F40337EB57D1D40EB072ED56379A8
S11341A0012B25D0002B29D1637A002B26D021683E
S11341B0E26A1378DBB2501CE062A079012800D1D6
S11341C069E09BB2DB05DB0D8B62A38E013B9BB2E6
S11341D0A386A38E9BB2002B10D101333375637A6F
S11341E0012B0BD1E379002B08D10233B37505E021
S11341F0637A002B3ED0637A002BD8D16B0711D59C
S1134200738B5B0751D5637A012B08D01E223823A8
S1134210E254353B6372023333753B0741D4B36ACE
S113422004237383AB0715D56379002B0ED10733B1
S11342303375053B3376013363720023A3862386EB
S113424038330022E254FB0600D57FE06379012B6A
S113425000D17FE02B0708D56379002B05D1083303
S113426033753376BB0600D58AE06DB2002D00DAD3
S11342708AE0F8BD4A4B1B88B362638E013B9BB254
S11342806386638E9BB2002B01D10133337563794E
S1134290012BB0D086E75078000203430232E26279
S11342A090E72000A3699847B9E7637A012B27D0E8
S11342B023689B6ADB05DB0DDAB2A16A0A70A26A85
S11342C0511CA162A179012933D0238E013B9BB2F9
S11342D02386238E9BB2002BA4D100223833E254D0
S11342E0343B3375637A022B29D0637A002B00D0D8
S11342F098E7BB0700D495E720002369984791E726
S113430023689B6A638E013B9BB26386638E9BB278
S1134310002B00D086E70433337500223433E25493
S1134320353B6372FB0700D47CE72000E3689847C1
S113433078E71B0A5370A36A0133A362C5E77B07BE
S113434000D46FE72000636998476BE72000E369B6
S113435098477BE7637A012B00D086E7E379002B4B
S113436000D082E7023333750133637200223533A0
S1134370E254FB0700D46DE72000E368984769E73F
S11343802000236A984770E78023337533767B06D1
S113439000D46EE7636A200098476AE7D80C0020CF
S11343A0D40C0020F0B5DE4657464E464546E0B5EF
S11343B087B08046049116001F00002200230021CC
S11343C08B463F2401202100009601975C4603940C
S11343D04446059413E02024641A0500E540A846E9
S11343E014E0009C019D121BAB415C464D462C43DE
S11343F0A346039C45462C430394013925D320242A
S113440064420C19E7D40500A540A84604008C407A
S1134410A14692185B4114001D00059E4F463E4084
S1134420B446049E47463E40B246664657463E431F
S113443003D00600264332002B00009C019D9D42C0
S1134440DBD8CED19442D8D8CBE7039B5846190089
S113445007B03CBC90469946A246AB46F0BD10B5A9
S1134460490840230024814202D2180010BD1C00D8
S1134470091A631C9BB28842F9D94023FF2CF4D853
S113448014800023F1E70000F0B583B00F0016009C
S113449008AA117804004C434022BC4202D91000FF
S11344A003B0F0BD002B14D1020008000021194C08
S11344B0A04701003A0000230020174CA047002227
S11344C00123121A8B41120C1B041A43328000225E
S11344D0E5E70022012BF9D10A00002300210D4C4D
S11344E0A04702000B0000920193380000210A4CFF
S11344F0A047050080239B0140229842CFD8790F22
S1134500F800009A019BA047EA00821AD2B2520333
S11345102A43DBE769640000A543000010B582B0BC
S113452004000E4B1B78002B07D0002905D10B4B40
S11345305B78834210D01D200CE001A90C7011207F
S1134540074B98471120074B9847044B5C70012296
S11345501A70002002B010BD0020FBE7240B0020DD
S113456075590000055900003C4B984232D00AD9D5
S11345703B4B98424ED03B4B984255D03A4B9842D5
S113458038D0002070478423DB0598420CD0374B89
S11345909842F6D1012917D0002957D0022915D005
S11345A0032915D00020EDE7012907D000294BD0BD
S11345B0022905D0032905D00020E3E72C48E1E7D0
S11345C02C48DFE72C48DDE72C48DBE72C48D9E70B
S11345D02C48D7E7012907D0002939D0022905D072
S11345E0032905D00020CDE72748CBE72748C9E7B2
S11345F02748C7E7012907D000292BD0022905D075
S1134600032905D00020BDE72248BBE72248B9E7CB
S11346102248B7E7022903D0032903D00020B1E7D9
S11346201F48AFE71F48ADE7012907D0002913D081
S1134630022905D0032905D00020A3E71A48A1E7E1
S11346401A489FE71A489DE71A489BE7032099E711
S1134650194897E7194895E7194893E70008004275
S11346600010004200040043000C00420004004219
S11346700300050003000600030007000300010017
S113468003001E0003001F000300090003000A00CA
S113469003000B00030011000300120003001300C9
S11346A003000E0003000F000300170003001800AE
S11346B003001900030004000300080003001000B5
S11346C00300160030B587B00B4B6A4632CB32C2BA
S11346D032CB32C2009B83420BD001239A0069463D
S11346E05258824206D00133062BF7D1002007B07E
S11346F030BD0023D8B2FAE704DF000070470000A1
S1134700F0B50A4B1B78002B0CD1094F094E0A4D0A
S11347100024DE515A1914600433182BF9D10122F4
S1134720024B1A708000024BC150F0BD260B0020D2
S1134730280B0020FD460000D80C002000B583B0F3
S113474008236A46137001335370013393700133A5
S1134750D3700133137101335371034B98476B4684
S1134760185603B000BDC046C546000010B5024B44
S11347701B680020984710BD280B002010B5024B81
S11347805B680120984710BD280B002010B5024B30
S11347909B680220984710BD280B002010B5024BDF
S11347A0DB680320984710BD280B002010B5024B8E
S11347B01B690420984710BD280B002010B5024B3C
S11347C05B690520984710BD280B002070B50022B6
S11347D0104B1A70002310491F25104E0D4C0AE08F
S11347E00D4908E023780133DBB223700F2B10D876
S11347F000211F2BF4D92800184001228240486967
S11348001042EFD04A619B009B59002BEAD0984795
S1134810E8E770BDF00C002000240040880C002064
S113482070B50020084B98470500084CFA21890010
S1134830A047074B186007492800A047064B18609B
S11348400522064B1A6070BD99580000D56200001D
S11348500800002040420F000C00002010E000E09F
S113486030B5084B1C68084A0025802149020138EC
S113487007D3002CFBD05460956013680B42FCD026
S1134880F5E730BD0C00002010E000E030B5084B27
S11348901C68084A002580214902013807D3002CEE
S11348A0FBD05460956013680B42FCD0F5E730BD33
S11348B00800002010E000E010B51E4A93690421AE
S11348C00B4393611C4B2022FF321A831A7D05236C
S11348D0D20701D4180010BD03781B02C022920035
S11348E013404178C901FF220A40134381784900EB
S11348F01E220A401343C27892048021C9020A404E
S1134900134302791204C02189020A4013430A4A5C
S1134910536093685B035B0F084908249C400C8038
S113492093684B8043780B71138BDB05DB0F1B0102
S1134930D0E7C0460004004000400041400B002086
S113494030B5304A1488538863438B420BD280229B
S113495092012D4BCB18934205D92C4C18232C4A89
S11349608A18A2420ED82B4B5C688022D2022243C2
S11349705A602022FF321A831B7DDB0704D4254BA7
S11349805C600523180030BD452829D88300224ADD
S1134990D3589F461F4B1B8BDB0503D51D4B5C6017
S11349A01023EFE7890849001A4BD96103E089080D
S11349B04900184BD961FD2305001A3D1D4013D051
S11349C0A5231B021843134B1880190001220B7DE9
S11349D01342FCD0002D0FD00E4B5C600023D1E7B6
S11349E00C4B5C601723CDE70A4B59688022D20236
S11349F00A435A605B68E3E7064A536807490B4079
S1134A005360E9E7400B002000C07FFFFF0F000068
S1134A100000C0FF004000411CDF0000FFFFFBFF5F
S1134A20F8B52F4B1C885B886343834207D22D4E15
S1134A3018252D4BC318B34206D8012600E00026E2
S1134A40631E1825184201D02800F8BD013D944288
S1134A50FAD3264B1B7D123DDB07F5D5244C234BA3
S1134A601C801D0001242B7D2342FCD02024FF3414
S1134A701E4B1C83002A2CD0012305009D430023D8
S1134A80541EA44609E0CF187F783F023C432C8093
S1134A9002339BB202359A4204D9CC5C6345F2DB03
S1134AA0A4B2F4E70E4B1B790025002BCCD13F2A8E
S1134AB0CAD8002E06D10022010004200D4B9847CD
S1134AC00500C1E7002201001C200A4B984705009D
S1134AD0BAE7034B1B790025002BEAD0B4E7C046A4
S1134AE0400B0020FF0F00000000C0FF0040004109
S1134AF044A5FFFF4149000070B51B4B1C885B882F
S1134B006343834205D2194E1825194BC318B34287
S1134B1003D8631E1825184201D0280070BD013D3A
S1134B209442FAD3134B1B7D123DDB07F5D52024A9
S1134B30FF34104B1C83002A14D001239843002314
S1134B40561E04E002339BB202309A4208D904880C
S1134B50A4B2CC54B342F5DACD18240A6C70F1E750
S1134B600025DAE70025D8E7400B0020FF0F0000FE
S1134B700000C0FF0040004110B5224A138852884B
S1134B805A43824207D2204C182220494118A1429C
S1134B9007D8012400E000249B00013B182218429E
S1134BA001D0100010BD1A4B1B7D133ADB07F8D55A
S1134BB0174B2022FF321A8380084000D861002C52
S1134BC01BD059688022D2020A435A605A68114A9B
S1134BD01A800F4901220B7D1342FCD0002C04D013
S1134BE00B4A53680C490B405360094B1A8B1C2029
S1134BF00240501E82419200D3E7084A044B1A80B7
S1134C00E7E7C046400B0020FF0F00000000C0FF94
S1134C10004000411AA5FFFFFFFFFBFF02A5FFFFB5
S1134C20154B2022FF321A839B685903490F183A07
S1134C30FF3A8A40027043801B0D83810F4B1B880F
S1134C405B065B0F072B10D00622D21A0423934075
S1134C5043600A4B1B8807221340072B08D0072206
S1134C60D21A042393408360704700234360F0E723
S1134C7000238360F8E7C046004000410040800004
S1134C8000B583B001AB80221A700A785A704A7852
S1134C909A708A78DA701900014B984703B000BD06
S1134CA0715A000070B50402034E044D736818195C
S1134CB0A8470528FAD070BD480B0020794B0000A6
S1134CC0F0B5DE4657464E464546E0B583B04D4BFB
S1134CD01B89002B00D18FE000254A4B9A461F0008
S1134CE027E00198484B98470434A4B2454B1B89EC
S1134CF0A34218D9013B9C42F6D07A68A301D35C45
S1134D00FF2BF1D09E42EFD14B46D35C4146515C20
S1134D109942E6D05946525C9A42E2D0A008C0B209
S1134D20394B9847E0E70435ADB2364B1B899D42B9
S1134D3017D2AB01984653465B6842469E5CFF2EF1
S1134D40F1D02C1DA4B22F4B1B899C4209D2802286
S1134D5042449146402242449346AA08D2B2019268
S1134D60C8E7002B43D0274A977A516800225E1E79
S1134D70244D04E00132403190B298420AD2964266
S1134D80F8D0087884B2FF2CF4D0BC42F2D22818B0
S1134D90C272EFE73F2087221A4988549D081FD02A
S1134DA04C6804210027013B13E0013292B2914286
S1134DB007D09A42F9D09001005DFF28F5D0002673
S1134DC0F3E7002E09D10137BFB2043189B2BD42E5
S1134DD006D00A1F92B20126EBE78723094AD7546B
S1134DE003B03CBC90469946A246AB46F0BD3F2179
S1134DF08723044AD154F3E73F218723014AD1543E
S1134E00EEE7C046480B0020A54C0000F8B50D00A5
S1134E108401054F054E7B68181940222900B047CC
S1134E200528F8D0F8BDC046480B0020F94A000018
S1134E30F8B50D008401054F054E7B681819402212
S1134E402900B0470528F8D0F8BDC046480B00201B
S1134E50214A000070B58401044E054D7368191988
S1134E6000220420A8470528F8D070BD480B002074
S1134E704149000010B59AB018AB00211970012205
S1134E805A702E4A5268D206120F9A70D97019714C
S1134E902B4C18A8A0470528FBD014A8294B9847E9
S1134EA0159B16200B2B01D81AB010BD264C23815C
S1134EB01A00083A5208A2721B049B0A5B42802221
S1134EC092029446634463600022C823E2541F4B59
S1134ED098478723E35C1A203F2BE5D001AA1C4B9B
S1134EE013CB13C2184B1889013880B204A9194B8B
S1134EF09847049B019A934219D1059B029A9342C5
S1134F0017D1069B039A934215D104ABDB7B102087
S1134F10012BC9D104AB1B7B012BC5D104AB5B7B3B
S1134F20002BC1D10122084B1A700020BCE71A20C3
S1134F30BAE71A20B8E71A20B6E7C0460040004195
S1134F40B9480000214C0000480B0020C14C00006F
S1134F5034E000000D4E000070B594B02F4C0022D8
S1134F608723E25400202E4B98472589042D25D908
S1134F700026042419E0A008C0B2294B984704ADC8
S1134F804022FF212800274B98472E70290020003B
S1134F90254B98472000254B98470136B6B201347B
S1134FA0A4B21E4B1D89A54208D9013DAC42F6D0DE
S1134FB003232340DFD0012BF1D8E0E701AE1C4BE3
S1134FC0320013CB13C204AC4022FF212000154B46
S1134FD09847019B049373686360B368A3600123DB
S1134FE0E373237300236373A373013DEB1703205F
S1134FF018404519AD10E8B2094B9847074D288968
S1135000013880B22100084B98472889013880B2C2
S1135010064B9847074B984714B070BD480B0020C7
S1135020A54C000071830000314E0000554E000075
S113503034E00000C14C000010B590B00C00154BDA
S11350401A781F23002A02D1180010B010BD114B8A
S11350509A7A18238242F7D9B0330E4AD35C002BD4
S113506003D08823D35C83420CD00A4B1818C07A2F
S11350706946094B98473C2201A92000074B9847F1
S11350800023E1E73C2203498C312000034B98477D
S11350900023D9E7480B00200D4E0000ED820000EC
S11350A0F0B5DE4657464E464546E0B593B005009A
S11350B0894617003C21234B9847C3B2009303A9A8
S11350C01800214B98470190002832D13C21280038
S11350D01E4B984789B22C00002905D103AB1B78DD
S11350E04A4613706C1CA4B22600AB46B846A844CA
S11350F044451EDA154B9A4603AF09E05B46F61A9F
S11351007B5D4A4693550134A4B22600444510DA27
S11351103C212000D0478DB2002DEFD1009B0133FC
S1135120DBB2009339001800074B98470028E5D0FC
S11351300190019813B03CBC90469946A246AB46F8
S1135140F0BDC046D562000039500000E1630000A4
S113515010B5C823084AD35C002B01D1002010BD30
S113516014008823D35CD318D87A044B98470022C0
S1135170C823E254F2E7C046480B0020554E000015
S1135180F0B5DE4657464E464546E0B587B00400C6
S113519000915A4B1B781F20002B06D107B03CBC52
S11351A090469946A246AB46F0BD544B9B7A0738CD
S11351B0A342F3D9C823514AD35C002B05D08823DA
S11351C0D35CA34201D04E4B98474C4B1B19DE7A5B
S11351D0032331009943494B5868B3011B5CFF2BEF
S11351E047D0751CEDB20431C9B2A94257D06B1C2B
S11351F0DBB2AA01125CFF2A3CD01D00F5E705AA28
S1135200D218567069E005AFFF187D7063E07078BE
S113521002993C4B9847394C21008831A8B23A4B4B
S113522098474B461B78E318DD720122C823E254E9
S113523001370236022F13D087235A46D55CAD00BE
S1135240ED19D047B146337801998B42DFD18823D9
S11352502A4AD1543C22009903982C4B9847DAE708
S1135260444640462A4B98478723244AD454002076
S113527094E73500214E8823F45430008C303C22CE
S11352800099224B984731008831A8B21E4B9847A9
S11352903419E5720122C823F25400207EE7B308D2
S11352A098461B02154A5268D31805AA197811703A
S11352B003218E4356703D31595C9170711CD1703D
S11352C08022985C4032995C0023B51C033605AA01
S11352D0D25C904297D08A4291D00233042BF6D10B
S11352E005AE0027054B9B46054B9A465B46883323
S11352F002930433039301949EE7C046480B0020B5
S1135300515100000D4E0000314E0000ED820000AE
S1135310A54C0000F0B5DE4657464E464546E0B57E
S113532091B00500894690463C212D4B9847C7B261
S11353303C2128002B4B984789B2002935D143469C
S11353403B2B3FD94B461A7801AB1A706C1CA4B2A4
S11353502600AB46A844A04522DD224B9A460AE02B
S11353605B46F61A4B469A5D01AB5A550134A4B21A
S11353702600444514DA3C212000D0478DB2002D8C
S1135380EED101A93800184B9847002813D10137F2
S1135390FFB201A93800154B98470028E0D00AE075
S11353A001A93800104B984705E001A938000F4BBC
S11353B0984700280DD011B03CBC90469946A246AF
S11353C0AB46F0BD01A93800084B98470028B9D076
S11353D0F1E72E00AB46A844A845ECDD2C00BCE761
S11353E0D5620000E16300008151000039500000E3
S11353F0704700000C4B1B68002B06D1EFF31083A1
S1135400002B07D00022094B1A70074A1368013396
S11354101360704772B6BFF35F8F0022044B1A709B
S11354200132024B1A70F0E7140C0020180C002013
S113543010000020084B1A68013A1A601B68002B00
S113544009D1064B1B78002B05D00122044B1A709E
S1135450BFF35F8F62B67047140C0020180C002055
S11354601000002010B5082803D880001D4B1B58DD
S11354709F46002034E01C4B186931E01B4B187D1B
S11354800007800F431C1A48584329E0164B5869FB
S113549026E0154B1B6800209B0721D51349802269
S11354A05200CB681342FCD00F4B1A6824231340DC
S11354B0042B01D00F4813E000200F4B98470A4BF0
S11354C09B681B041B0C58430AE02823074AD35C3F
S11354D000209B0704D5044BD86801E0802000021B
S11354E010BDC04640E000001C0C0020000C004031
S11354F000093D00006CDC0299590000F0B5264B10
S11355001B8A5D056D0F42780F24144002785142C6
S11355104A41D2B286784168204FB9420DD9204F12
S1135520B94233D91F4FB94232D91F4FB94231D989
S11355301E4FB94202D8042500E00025477A007ABC
S113554084461B48016101219000042293431A0000
S1135550024363460B409B01402082431A433800B8
S11355600840C00180239A43130003432D02114ACB
S113557013402B433140C9020F4A13400B43240309
S11355801B051B0D2343044A1382F0BD0125D5E7F7
S11355900225D3E70325D1E7000C004080841E00D8
S11355A000093D0000127A000024F4000048E801DC
S11355B01C0C0020FFF8FFFFFFF7FFFF082803D8AB
S11355C080002D4B1B589F46172054E02B4A137D17
S11355D002210B43137500204DE0294A93690221EF
S11355E00B439361002046E0244A138A02210B43B3
S11355F0138200203FE0224A536902210B43536186
S1135600002038E01F490B68022213430B601B4B38
S11356101A831900FE32CB681342FCD0194B9A68E6
S1135620164B1A6202221A831900FE32CB68134207
S1135630FCD0144B5A68114BDA6100221A8319000A
S11356400132FF32CB681342FCD00E4B1B689BB275
S11356500A4A138300200EE0084928228B5C0220AA
S113566003438B5408003821263A435C1342FCD18F
S1135670002000E00020704764E00000000C0040BF
S1135680001000401C0C002010B584B08022520091
S1135690324B9A60FD3A324B9A60324A53681E216B
S11356A08B4353608023DB059B78022B0FD0802330
S11356B0DB059B785BB2002B09DB8023DB05012231
S11356C09A7101329A701A009379002BFCD0234B03
S11356D0197D802252420A431A751A7D40218A4359
S11356E01A75214B9847214C0123A37163712371CF
S11356F001A94B6000234B7006220A700B724B7297
S113570000201B4B984700201A4B984700201A4B47
S113571098472179C9B2194B9847194B984202D935
S11357200822A2716271174B984214D88023DB05BA
S11357309B78002B0FD08023DB059B785BB2002B7A
S113574009DB8023DB0501229A7100229A701A007A
S11357509379002BFCD004B010BDC046000C00406F
S1135760001400400040004189570000000400403C
S1135770AD5700005958000099580000D562000048
S1135780808D5B00001BB700064A536940210B4320
S113579053610122044B1A7019000B781342FCD197
S11357A07047C046000400400018004070B5040073
S11357B00D784B78002B02D08023DB001D434B7AFD
S11357C0002B02D080231B011D43486801280FD9F8
S11357D0431E184231D102282DD90223002201325E
S11357E05B009842FBD880235B011D4312041543E0
S11357F00B7A002B02D080239B011D430426A64074
S11358001149124A4B6813401E42FBD1104B984772
S1135810A4000D4B9C466444226A80235B001A401A
S11358202A4322626146094A4B6813401E42FBD157
S1135830084B984770BD0022D5E7000480239B00E5
S113584018430543D4E7C04600180040FC07000095
S1135850F55300003554000010B5040004228240C2
S113586009480A4943680B401A42FBD1084B984740
S1135870A400054B9C466444226A80235B001343C6
S11358802362044B984710BD00180040FC07000039
S1135890F553000035540000F8B50400042282409A
S11358A01248134943680B401A42FBD1114B9847E5
S11358B00E4F0834A400E0590007000F0E4B984720
S11358C00600E559ED04ED0FE459240C0B4B984701
S11358D0002D07D1012C07D921003000084B98472F
S11358E0060001E00134E6403000F8BD0018004035
S11358F0FC070000F5530000655400003554000017
S1135900D562000010B50400094B9847A000094B6C
S11359109C4660448022835840210B43835040318D
S1135920403A43581A42FCD0034B984710BDC04636
S1135930F5530000001800403554000010B5040071
S1135940094B9847A000094B9C4660448022835829
S113595040218B4383504031403A43581A42FCD192
S1135960034B984710BDC046F55300000018004093
S11359703554000070B504000D00054B98472A7893
S11359800F2313402034A400024AA35070BDC04624
S11359903D5900000018004010B50400064B98471C
S11359A02034A400054BE4582407240F044B9847E3
S11359B02000044B984710BDF55300000018004028
S11359C0355400009958000030B5D378002B35D1F8
S11359D01378802B29D01B06802464022343547837
S11359E00225AC4306D19478002C20D18024A40253
S11359F0234341605478013C012C1CD90D042D0C27
S1135A00A024E4052C431C4384620D0CD0242406FA
S1135A102C431C438462D478002C22D15B031CD514
S1135A209378012B1ED0416117E00023D7E7C024EF
S1135A30E4022343DDE70D4C2340DFE741600C041F
S1135A40240CA023DB05234383620C0CD0231B0608
S1135A5023438362D378002B03D15378013B012B7A
S1135A6002D930BD8161F8E78160FAE7FFFFFBFFEF
S1135A7010B50A00C1090023002904D14309DB0140
S1135A8005498C4663441F242040012181401800AD
S1135A90024B984710BDC04600280040C959000079
S1135AA07047000010B5054B9847054B9847054BC8
S1135AB09847054B9847054B984710BD89560000F9
S1135AC0F1530000A15A0000AD2F0000A15A0000BC
S1135AD0FEE7000010B51A4A1A4B9A4211D01A0078
S1135AE0194B9A420DD2194A03339B1A9B0801336E
S1135AF09B000022134812498C58845004329A4265
S1135B00FAD1134A134B9A420AD2D34311495B1870
S1135B1003218B4304339B18002102C29342FCD11E
S1135B200D4AFF210D4B8B4393600D4A53687F3917
S1135B300B4353600B4B98470B4B9847FEE7C0460B
S1135B4034E5000000000020C0090020040000200B
S1135B50C00900201C0D002000ED00E00000000042
S1135B6000400041A5820000A93900000300064A54
S1135B701268002A04D0044A1068C31813607047DE
S1135B800249014A1160F6E7340C0020201D002070
S1135B90F0B54746CE4680B58DB004000D0000F048
S1135BA0B7F8274B060098461B780F005BB2013309
S1135BB031D022002B002000290002F09FF98146F9
S1135BC0002828D12000290000F078FB00221D4B7A
S1135BD000F036FC00281ED0012302931A4B1B4808
S1135BE003934B46069407950A930494059500F095
S1135BF06BFB43461B78089009915BB2022B11D0D2
S1135C0002A800F05FFB00280CD00A9B0193002B34
S1135C1010D1089E099F300039000DB00CBC90468D
S1135C209946F0BD02F038FB212303600A9B0193DF
S1135C30002BEED002F030FB0A9B01930360E8E7EF
S1135C40110000200000F03F88E00000B4DB0000F9
S1135C50F0B54746CE4680B58DB004000D0000F087
S1135C604DFA294B06001B780F005BB298460133AE
S1135C7010D022002B002000290002F03FF98146B9
S1135C80002807D1002200232000290000F0C4FBD3
S1135C90002806D1300039000DB00CBC904699465E
S1135CA0F0BD01230293194B0694079503934B46C9
S1135CB00A93434604940595002B15D00023002233
S1135CC01900100000F050FF434608900991022B80
S1135CD00ED102F0E1FA212303600A9B0193002B09
S1135CE00CD1089E099FD5E700230024089309944A
